:020000040800F2
:1038000038110020653900083B4500087544000860
:1038100039450008B94200089D5C0008000000001E
:10382000000000000000000000000000A1490008A6
:10383000CD42000800000000C94500089D4A00086C
:103840007F3900087F3900087F3900087F39000878
:103850007F390008054300087143000897430008BA
:103860007F3900087F3900087F3900087F39000858
:103870007F390008DD4B00087F3900087F390008D8
:103880007F3900087F390008000000002D4C000837
:103890007F390008314C00087F3900087F39000863
:1038A0007F3900087F3900087F390008495C00082B
:1038B0007F390008000000007F3900080000000088
:1038C0007F390008000000007F3900080000000078
:1038D00000000000000000000000000000000000E8
:1038E0000000000000000000615C00080000000013
:1038F00000000000000000000000000000000000C8
:103900007F390008000000000000000000000000F7
:1039100000000000000000000000000000000000A7
:103920000000000000000000000000000000000097
:103930000000000000000000000000000000000087
:10394000000000000000000000000000555C0008BE
:10395000DFF80CD000F098FB004800479D8300087A
:10396000381100200648804706480047FEE7FEE77A
:10397000FEE7FEE7FEE7FEE7FEE7FEE7FEE7FEE71F
:103980003D4B00085139000830B50B460146002078
:103990002022012409E021FA02F59D4205D303FA11
:1039A00002F5491B04FA02F52844151EA2F1010292
:1039B000F1DC30BD70B500242546002801DA012471
:1039C0004042002901DA01254942FFF7DDFFAC4200
:1039D00000D04042002C00D0494270BD10B5431ABF
:1039E000934209D28318881803E010F8011D03F8E8
:1039F000011D521EF9D210BD40EA01039B0703D0FE
:103A000009E008C9121F08C0042AFAD203E011F81D
:103A1000013B00F8013B521EF9D210BDD2B201E0C9
:103A200000F8012B491EFBD270470022F6E710B5C3
:103A300013460A4604461946FFF7F0FF204610BD1C
:103A400010B5044604E00B7800F8013B03B1491CB3
:103A5000521EF8D2204610BDCAB2401E10F8011FF7
:103A60008A4202D00029F9D100207047421C10F888
:103A7000011B0029FBD1801A7047F0B480EA0102D3
:103A8000D40F4200B2EB410F02D202460846114663
:103A90004A0042D0C30DDDB2C1F3C752AD1A202D8A
:103AA00035DAC1F3160141F4000204B15242C5F106
:103AB000200602FA06F12A411044B3EBD05F23D06E
:103AC000C4B1012DA0EBC35009DCF0BC4FF00042A3
:103AD00002EAC352DBB200F5000000F04ABA40002F
:103AE00000F1807000EBC350A0F1807040EAD1700B
:103AF000490009E0490841EAC071A0EBC35000F554
:103B00000000400800EBC350F0BC00F029BA61424D
:103B1000012202EB4101001BF6E7F0BC704781F087
:103B20000041AAE780F00040A7E780EA010210B553
:103B300002F00043400022D04A001FD0010E01EBEA
:103B40001261C0F35600C2F3560240F4000042F482
:103B50000002A0FB022000047F39140400D0401CA6
:103B600050EA124001D44000491EC2B20C0604EBD8
:103B7000D010401C4008802A02D003E0002010BD75
:103B800020F00100002900DA0020184310BD30B4F5
:103B900080EA010202F0004530F0004221F00040CE
:103BA00013D090B1C30DD40DC2F31601C0F31600AB
:103BB000E41A41F4000140F400027D34914201D343
:103BC000641C00E04900002C02DA30BC0020704781
:103BD0004FF400000023914201D3891A03434008A7
:103BE0004FEA4101F7D151B1914202D14FF000416A
:103BF00005E002D24FF0010101E06FF0010103EB9B
:103C0000C450284430BC00F0ABB92DE9FE4F8046CB
:103C100081EA0300C00F0C46009021F0004123F020
:103C20000045B8EB0200A94105D240462146904626
:103C30001C460B46024623F00040104347D0270D98
:103C4000C7F30A00C3F30A510290401A01904028BA
:103C50006BDAC3F3130040F4801B0098924620B146
:103C60000023D2EB030A63EB0B0B01985946C0F11A
:103C70004002504600F043F906460D46504659466C
:103C8000019A00F05BF910EB08006141002487EA1B
:103C9000115284EAE7731A4340D0009A62B3019A42
:103CA000012A4FEA075215DC001B61EB02014FF0BD
:103CB000004202EA0752CDE90042001C41F58011A2
:103CC00032462B4600F092F903B0BDE8F08F404633
:103CD0002146F9E7001B61EB0201001C41F580134E
:103CE00000185B412018A2F5001747EB030140EADA
:103CF000D570B6196D4111E06D084FEA360645EAF8
:103D0000C0754FEA0752001B61EB0201001C41F530
:103D1000801149084FEA30000019514132462B46C4
:103D200003B0BDE8F04F00F052B900980122400006
:103D30000023D0EB020263EBE073009821464FEAC8
:103D4000E074B8EB000061EB0401E9E783F00043A5
:103D50005BE781F0004158E72DE9FE4F81EA03045B
:103D600004F0004421F0004100944FF0000B23F0D8
:103D7000004350EA01045ED052EA03045BD0C3F36F
:103D80000A54C1F30A552C44A4F2F3340194A0FB65
:103D90000254C1F3130141F48011C3F3130343F43C
:103DA000801301FB024400FB034E840A970A44EA95
:103DB000815447EA8357A4FB076802958D0A05FBE7
:103DC00007854FEA932C04FB0C542705029D4FEA0C
:103DD000065847EA1637B5EB08056EEB070C870E59
:103DE000920E47EA811742EA8312A7FB0201B6EB63
:103DF0000B0164EB00042B0D43EA0C335E1844EB1B
:103E00001C50DA465146E7FB0201C5F313044FEAA2
:103E10000B3343EA14534FEA0432019C43EA06038E
:103E2000A4F10C040294009CCDE900B400F0DEF88B
:103E300003B0BDE8F08F00200146F9E7C10F80EA2A
:103E4000E0700844CA079623002100F092B8962338
:103E50000022114600F08DB80EB540F233410291B8
:103E60000021CDE900110A460B4600F0BFF803B06F
:103E700000BD00F0004220F00040C10DC0F316006C
:103E800040F400007F2901DA00207047962903DC06
:103E9000C1F19601C84001E096398840002AF4D06B
:103EA0004042704720F00040C10DC0F3160040F4BE
:103EB00000007F2901DA00207047962903DCC1F158
:103EC0009601C8407047963988407047C1F30A523E
:103ED00010B5C1F3130140F2FF3341F480119A424F
:103EE00001DA002010BD40F233439A42A2F233427D
:103EF00003DC524200F012F810BD904010BD202AA1
:103F000004DB203A00FA02F1002070479140C2F130
:103F1000200320FA03F3194390407047202A04DB62
:103F2000203A21FA02F00021704721FA02F3D04032
:103F3000C2F120029140084319467047202A06DB4F
:103F4000CB17203A41FA02F043EAE07306E041FA67
:103F500002F3D040C2F12002914008431946704755
:103F60000029A8BF7047401C490008BF20F001008D
:103F7000704710B4B0FA80FC00FA0CF050EA01046B
:103F800004BF10BC704749B1CCF1200421FA04F4FD
:103F900011FA0CF118BF012121430843A3EB0C01D6
:103FA000CB1D4FEA00614FEA102042BF002010BC39
:103FB000704700EBC35010440029A4BF10BC7047E9
:103FC000401C490008BF20F0010010BC704710B52C
:103FD000141E73F1000408DA401C41F1000192182C
:103FE0005B411A4301D120F0010010BD2DE9F04DD5
:103FF00092469B4611B1B1FA81F202E0B0FA80F22A
:1040000020329046FFF77BFF04460F4640EA0A0045
:1040100041EA0B0153465A46084313D0114653EA6E
:10402000010019D0C8F140025046FFF777FF05465E
:104030000E46504659464246FFF761FF084305D0F9
:10404000012004E020463946BDE8F08D00200543FC
:1040500046EAE0762C4337430A986305E40AA0EB6E
:1040600008000022FD0A44EA47540A3002D5002025
:104070000146E9E7010510196941DDE90845001924
:104080006941BDE8F04DA2E7064C074D06E0E06847
:1040900040F0010394E8070098471034AC42F6D38F
:1040A000FFF75AFCB4E10008D4E1000870B58C18A1
:1040B00010F8015B15F0070301D110F8013B2A113C
:1040C00006D110F8012B03E010F8016B01F8016B29
:1040D0005B1EF9D12B0705D40023521E0DD401F825
:1040E000013BFAE710F8013BCB1A921C03E013F8EE
:1040F000015B01F8015B521EF9D5A142D8D3002023
:1041000070BD10B501F0DCFDBDE8104001F0C8BD88
:104110002DE9F0413B4864211E2301705A21417072
:10412000502181704621C1703C2101714171817122
:104130003221C1710172417223218172C1720173F6
:10414000437331498373C3738C694EF25B37CA6919
:1041500048F2B1554FF0000CA0F10C01BC4201D95E
:10416000AA4210D84FF4845E41F24B26744502D81F
:10417000AA4208D805E0BC4201D9B24203D3744533
:1041800003D8B24201D202220BE06FF484573C44C0
:104190004DF2DB27BC4203D2AA4201D8B24202D27E
:1041A00001228A7001E081F802C0184AC1F804C0F7
:1041B000D26812B11C2088601EE0154E154A8C781A
:1041C000B6F87460B2F874204FF420753244022CB3
:1041D0000CD0012C0AD0002C12D14FF40C74B2FB7D
:1041E000F4F24A600F2A04D38B6004E0B2FBF5F2CC
:1041F000F7E7805C8860087ABDE8F04100F00CB811
:10420000BDE8F08118000020B40600200C08002052
:104210001C070020940700202DE9F041044602F01D
:104220007DFA8446042806D0C4EBC4304DF6F6115E
:10423000B0FBF1F0C4B21F494D6A8B69CA69886A44
:104240005E1BA2EB000700D57642002F00DA7F420A
:104250003E44A64227DBBCF1040F15D05E1E47F694
:10426000FE74A64205D80B721E0A2B444E725B08E0
:104270004B62531EA34205D8130A8A721044CB72B4
:1042800040088862BDE8F0815C1E4DF6F516B44228
:1042900005D80B721C0A2B444C725B084B62531EF0
:1042A00047F6A624E6E70D722A0A4A728872000AC7
:1042B000C872E7E7B4060020FEE70000024A0021CA
:1042C00002EB0010017070477C0400207047000072
:1042D0000A484DF65A520168A1F6AF51914208D2F0
:1042E000406840F60D71884203D348F65651884223
:1042F00002D9034900200884704700002C080020E0
:10430000B406002070B5012002F094FB002827D0ED
:10431000144D6869F8B100F011FC002004F09AFD1A
:104320001148006804F0B0FE40F20C5004F082FE28
:10433000284606F0DDFE0D4C206840F001002060AC
:10434000052006F0F5FF206820F001002060E87BE2
:10435000687300206861BDE87040012002F064BB12
:1043600070BD0000DC010020D401002004080050D2
:1043700010B5042002F05EFB10B1022004F07AF9BF
:10438000082002F057FB002804D0BDE810400320AD
:1043900004F070B910BD10B5102002F04BFB10B145
:1043A000042004F067F9202002F044FB10B105203E
:1043B00004F060F9402002F03DFB10B1062004F04B
:1043C00059F9802002F036FB10B1072004F052F9B1
:1043D0004FF4807002F02EFB10B1082004F04AF96F
:1043E0004FF4007002F026FB10B1092004F042F9EE
:1043F0004FF4806002F01EFB10B10A2004F03AF97D
:104400004FF4006002F016FB10B10B2004F032F9FB
:104410004FF4805002F00EFB10B10C2004F02AF98A
:104420004FF4005002F006FB10B10D2004F022F909
:104430004FF4804002F0FEFA10B10E2004F01AF999
:104440004FF4004002F0F6FA002804D0BDE8104016
:104450000F2004F00FB910BD034610B5002002462E
:1044600004E09C5C521C2044C0B2D2B28A42F8DB09
:1044700010BD000002494AF6AA20086005F0B2B853
:1044800050280040084909484A7822B182694DF60F
:10449000F6139A1A82618978002904D0C16947F617
:1044A000A722511AC161704708000020B4060020FD
:1044B00070B51E4C4DF6F513591CA06947F6FF75F3
:1044C000421E9A4205D8C0EBC030B0FBF1F0A061AB
:1044D00003E010B1884200D9A561E06947F6A62340
:1044E000421E591C9A4205D8C0EBC030B0FBF1F017
:1044F000E06103E010B1884200D9E5610C484178E1
:1045000011B1A169691AA161807810B1E069281A16
:10451000E06102F0F3F8002806D00648006802289F
:1045200002D1E069281AE06170BD0000B4060020E5
:10453000080000202C030020FEE7704770B52049DA
:10454000012400220B681F48B3F55B6F02D204758B
:10455000826100E002754EF2A5764DF6F615B34283
:1045600003D84EF22476B34202D94475856100E047
:104570004275A3F6AF53AB4200D88361496840F659
:104580000D73994203D940F63273994202D2847472
:10459000C26100E0827448F6B41547F6A723A94229
:1045A00003D848F6E715A94202D9C474C36100E0F4
:1045B000C274A1F60D71994200D8C16170BD0000AE
:1045C0002C080020B40600207047FFB589B0099878
:1045D00008900A9C0B9F0C9D1298079013980690C8
:1045E000149EE01B411B0798081800282AD0089841
:1045F000001BC01B4019002824D0A54211DBE21B80
:10460000531B079A9918621B72431046FFF7D2F9A1
:1046100001460698704308180290FFF70FFC0590BA
:1046200010E0089A121BD21B5119621B72431046EC
:10463000FFF7C0F901460698704308180290FFF78B
:10464000FDFB05907800001B401B4000002810D0A7
:104650007A00121B521B5100621B72431046FFF777
:10466000A9F9014606987043401A0290FFF7E6FB4D
:10467000049005990498FFF752FA0190FFF7F9FBAF
:104680000290002801DB029801E002984042B0420B
:1046900007DD0498FFF7EDFB0290FFF7CFFB0390D7
:1046A0000DE004990598FFF7E8F90190FFF7E1FBA9
:1046B000C20F111802904810FFF7C0FB0390039837
:1046C000FFF7F0FB0DB0F0BDF0B58BB004460D4622
:1046D00016461F4600200A90781EC7B26800001BCD
:1046E000801B3FD0A9006200A218891A881B0028ED
:1046F00001DB014600E0414209916900091B881B6A
:10470000002801DB014600E0414208910898FFF7CC
:104710009EFB06900998FFF79AFB05900699FFF714
:1047200036FA079010994808FFF791FB0590109909
:104730004808FFF78CFB01900799FFF7F6F9039003
:10474000109979430846FFF782FB02900399FFF71F
:1047500094F904900599FFF7E2F90690FFF7A2FBA0
:104760000A9001E000200A900A980BB0F0BD00000A
:1047700070B590B005460E4614462022294608A87A
:10478000FFF72CF91C22314601A8FFF727F9019900
:104790000998884205D901990998401A7D4908600D
:1047A00004E009990198401A7A49086002990A9828
:1047B000884208D902990A98401A7649096840182F
:1047C0007449086007E00A990298401A714909681B
:1047D0004018704908606F480068322803D20020F2
:1047E0006D49087002E001206B4908700B980028A1
:1047F0005DD0608A67490968884203D2608E674944
:1048000008607BE0208A63490968884203D2208ED1
:104810006249086072E0E0895E490968884203D213
:10482000E08D5E49086069E060885A4909688842FD
:1048300003D2608C5949086060E0A0885549096836
:10484000884203D2A08C5549086057E0E08851495E
:104850000968884203D2E08C504908604EE0208904
:104860004C490968884203D2208D4C49086045E0D4
:10487000608948490968884203D2608D47490860C9
:104880003CE0A08943490968884203D2A08D43498E
:10489000086033E020883F490968884203D2208CB1
:1048A0003E4908602AE0E08B3C49086026E0E08948
:1048B00038490968884203D2A08B384908601DE056
:1048C000608834490968884203D2208B33490860E4
:1048D00014E0A0882F490968884203D2608B2F49D1
:1048E00008600BE020882B490968884203D2E08ADF
:1048F0002A49086002E0A08A284908602748006821
:10490000012805D10020049005906946087714E03D
:104910000DE001990498401A049002990598401AF4
:1049200005906846007F401EC1B268460177684620
:10493000007F1A4909688842EBD209990498401807
:1049400004900A990598401805906846007F401C1D
:10495000C1B268460177007F00280CDD6A46117FEE
:104960000498FFF711F801906A46117F0598FFF748
:104970000BF8029006E0099801900A980290002036
:10498000694608771C2201A93046FFF727F810B0C6
:1049900070BD000028050020060500202C05002021
:1049A0007047000070B50C460549012201EB001567
:1049B0002A70AC6005F016FC2044686070BD0000F1
:1049C0007C04002000B58FB0C820ADF800004FF483
:1049D0009660ADF802004FF44870ADF804004FF453
:1049E0001670ADF806004FF4FA70ADF808004FF4F9
:1049F000C870ADF80A004FF49670ADF80C004FF493
:104A0000FA50ADF80E004010ADF810004010ADF8AF
:104A1000120005200F220321ADF814200123ADF868
:104A20001600ADF81810ADF81C30ADF81A10ADF83E
:104A30001E20ADF82400ADF82800ADF82000ADF838
:104A40002600ADF82A00ADF82C0011480422ADF87C
:104A50003010ADF82220ADF82E10ADF83210808D58
:104A600068B90C4840F2DC51C068884207D30A4953
:104A70000020ADF83400C8600861087601E0ADF8A8
:104A800034306A4604490348FFF772FE0FB000BD98
:104A9000B40600200C0800202C08002005F0A8BB5C
:104AA0003FB51DA30FCB8DE80F001F4948681F4B72
:104AB0001F4AC0F3810020B11E4C012803D00228F8
:104AC00003D013601EE014601CE048684B68C0F31C
:104AD0008340C3F3C065CB6ADB0F0DB1113000E03A
:104AE000801C03B11F304B68C3F300433BB1CB6A5A
:104AF00003F00F035B1CB4FBF3F34343E1E70E4BFE
:104B00005843106048681168C0F303101DF8000096
:104B1000C14011603FBD0000000000000000000027
:104B200001020304060708090010024000127A007F
:104B300010030020001BB70000093D002048016859
:104B400041F4700101601F48016841F001010160FA
:104B500001688907FCD541681B4A114041604168E2
:104B60001A4A11404160416821F440014160016BE3
:104B7000174A114001630168164A11400160C16A79
:104B8000154A1140C162016B40F203129143016367
:104B9000016B21F480310163016B21F0004101635D
:104BA000416B21F001014163D0F8C01021F4803144
:104BB000C0F8C01000218160C0F8CC1004F014BE11
:104BC00088ED00E0001002400C00FF08FFFFC277F4
:104BD000BFFFFFBFFFFFF2FEF0FFFF3F70B5114DBB
:104BE0000121284605F06DF900281AD00121284638
:104BF00005F064F90C4CE07A217B88420ED304D195
:104C0000286840F00800286008E04FF0280003F012
:104C100065FD082005F0F4FA04F04AFBE07A401C38
:104C2000E07270BD002C01404808002004F01ABF5B
:104C300070B51E4D0121284605F043F9002833D0F8
:104C40000121284605F03AF9194C1848217C2C30EE
:104C500019B30021217496220260E172A07A05281E
:104C600022D2DFE800F003090F111100607804F090
:104C70003FF8217800200CE0A07804F039F8207883
:104C8000002106E0E07800E0207904F007F8A1793F
:104C90006079BDE8704004F03DBA322101602846D9
:104CA000BDE8704005F001B970BD0000004401404E
:104CB0004808002030B59BB041F288320A923C226D
:104CC0000B924FF42F720C924FF46B7240F2A6438A
:104CD000CDE90D2340F2B4530F9340F2F9631093E2
:104CE00040F62503119340F69803129340F2E9230E
:104CF000CDE913324FF4966215924FF4B4621692D6
:104D000040F2A462179240F22172189240F62A02F1
:104D1000104B19920DF1180C0C4D0D4C5A1E8CE8CD
:104D20003C000D4B0DF1080C0AAD9C785B781C2201
:104D30008CE83C002E22CDE900120346074A0849C0
:104D4000084800F011F81BB030BD0000120500202B
:104D5000100500200D000020080000201808002089
:104D6000940700201C0700200FB593B0FE48007880
:104D700000281CD1FD480078002806D10120FC49FC
:104D800008700020FB49087014E0F84800780128FA
:104D900010D1F84800780A2803DB0220F449087093
:104DA00008E0F4480078401CF249087002E0002056
:104DB000EF490870F0480078F04908701698042808
:104DC00006DC0120EE4908700020EE4908700AE078
:104DD0001998001F1699884205DA0020E8490870E2
:104DE0000120E84908701898042806DC0120E649EB
:104DF00008700020E54908700AE01A98001F189909
:104E0000884205DA0020E04908700120DF49087077
:104E10001998001F1699884217DB1698042814DD8C
:104E20001A98001F189988420FDB189804280CDD87
:104E30000120D14908700020D1490870D14908707B
:104E4000D1490870D149087016E01A98001F1899C6
:104E5000884202DB1898042803DC0320C649087046
:104E60000AE01998001F1699884202DB1698042858
:104E700002DC0220C0490870C048007801280CD12B
:104E8000BD480078022803D0BB480078032804D12D
:104E90000120BF490870BF490870B848007803284E
:104EA00008D1B5480078012804D1BB49087000201A
:104EB000B7490870B1480078022809D1AE48007897
:104EC000012805D1B54908700020B149087000E0FB
:104ED00000BFAF480078002871D1119010900F905A
:104EE0000E900D900C900B900A90099008901B98D2
:104EF000002809D01398C06C11901398806A0F9005
:104F0000139840680D9008E013984068119013982A
:104F1000806A0F901398C06C0D901C98002809D0DF
:104F20001498C06C0C901498806A0A901498406889
:104F3000089008E0149840680C901498806A0A90D1
:104F40001498C06C089096480078964908700D999E
:104F50001198884206D9924800784008400090494C
:104F600008700AE00D991198884206D28C480078A2
:104F700040084000401C8A49087008990C988842F3
:104F800006D98748007802218843854908700AE0DD
:104F900008990C98884206D28148007802218843FB
:104FA000801C7F4908707E4800787E4909788842D5
:104FB00006D07D480078401C7B49087003E0F9E387
:104FC000002079490870784800781E2803DD002009
:104FD0007549087003E0734800787149087070489B
:104FE0000078C007C00F002815D10D98002805D003
:104FF0000D991198FEF7C8FC6C4908800F9800289D
:105000001ED06B491198484307900F99FEF7BCFCDE
:105010006849088014E01198002805D011990D986E
:10502000FEF7B2FC614908800F98002808D060495B
:105030000D98484307900F99FEF7A6FC5D4908803C
:10504000574800788007C00F002815D1089800281D
:1050500005D008990C98FEF797FC574908800A98E4
:1050600000281ED052490C98484307900A99FEF731
:105070008BFC5249088014E00C98002805D00C994C
:105080000898FEF781FC4C4908800A98002808D04F
:1050900047490898484307900A99FEF775FC474925
:1050A00008800E991098401A0790002801DB079895
:1050B00001E0079840421D990968884203D22B48B5
:1050C0000078022803D129480078022803D1394802
:1050D00000883B49088009990B98401A07900028DE
:1050E00001DB079801E0079840421D990968884252
:1050F00003D21E480078022803D11C4800780228F9
:1051000003D12E4800882F4908802D480088FEF7DB
:10511000A3FE2D4A2D4B01910090FEF71DFE059137
:1051200004902B480088FEF797FE274A294B0191EF
:105130000090FEF711FE03910290059B049AFEF782
:1051400064FD07910690FEF7C1FE1D4908801D48C9
:105150000088FEF781FE1C4A1C4B01910090FEF76F
:10516000FBFD0591049037E0060500204105002075
:105170004205002043050020FC040020FD0400201F
:10518000030500200205002004050020050500207D
:105190000005002001050020FF040020FE0400207F
:1051A00021050020220500202005002018050020F0
:1051B000B80B00000C0500201A0500200E05002089
:1051C00010050020120500209A9999999999C93FD4
:1051D000140500209999E93FFE480088FEF73CFE3F
:1051E000FD4AFE4B01910090FEF7B6FD039102903F
:1051F000059B049AFEF709FD07910690FEF766FEEF
:10520000F7490880F7480088F7490880F448008883
:10521000F049088015980068079000F03FFCF348BB
:105220000088F0490880F2480088ED490880ED4880
:10523000018820980180EA480188219801801D9802
:105240008068EA490968884203D90020E949087062
:105250001CE11D988068E5490968884227D81D9897
:10526000C068E2490968884221D91D98C1688068F0
:10527000081A0A210290FEF787FB0390FEF7E7FD6C
:1052800005901D988068D9490968081A0390FEF7AF
:10529000DEFD04900599FEF77AFC00210690FEF7EA
:1052A000ECFB0790FEF7FEFDD2490870EEE01D987A
:1052B000C068CE490968884227D81D980069CB4943
:1052C0000968884221D91D980169C068081A0A2115
:1052D0000290FEF759FB0390FEF7B9FD05901D986B
:1052E000C068C2490968081A0390FEF7B0FD04902F
:1052F0000599FEF74CFCC0490690FEF7BEFB0790EF
:10530000FEF7D0FDBB490870C0E01D980069B749A1
:105310000968884227D81D984069B44909688842BD
:1053200021D91D9841690069081A0A210290FEF7E7
:105330002BFB0390FEF78BFD05901D980069AB4990
:105340000968081A0390FEF782FD04900599FEF79C
:105350001EFCAA490690FEF790FB0790FEF7A2FDFF
:10536000A449087092E01D984069A04909688842E4
:1053700027D81D9880699D490968884221D91D98C0
:1053800081694069081A0A210290FEF7FDFA03902C
:10539000FEF75DFD05901D98406994490968081A5B
:1053A0000390FEF754FD04900599FEF7F0FB944935
:1053B0000690FEF762FB0790FEF774FD8D490870BA
:1053C00064E01D98806989490968884227D81D983A
:1053D000C06986490968884221D91D98C1698069D8
:1053E000081A0A210290FEF7CFFA0390FEF72FFD6C
:1053F00005901D9880697D490968081A0390FEF799
:1054000026FD04900599FEF7C2FB7E490690FEF743
:1054100034FB0790FEF746FD7649087036E01D988C
:10542000C06972490968884227D81D98006A6F4987
:105430000968884221D91D98016AC069081A0A21A1
:105440000290FEF7A1FA0390FEF701FD05901D986A
:10545000C06966490968081A0390FEF7F8FC0490D1
:105460000599FEF794FB68490690FEF706FB079046
:10547000FEF718FD5F49087008E01D98006A5B4957
:105480000968884202D83C205A4908701D98406A31
:1054900057490968884203D900205C4908703BE1FC
:1054A0001D98406A52490968884227D81D98806A29
:1054B0004F490968884221D91D98816A406A081AB3
:1054C0000A210290FEF760FA0390FEF7C0FC0590F7
:1054D0001D98406A46490968081A0390FEF7B7FC10
:1054E00004900599FEF753FB00210690FEF7C5FADC
:1054F0000790FEF7D7FC454908700DE11D98806ABA
:105500003B490968884227D81D98C06A384909680C
:10551000884221D91D98C16A806A081A0A2102901E
:10552000FEF732FA0390FEF792FC05901D98806A10
:105530002F490968081A0390FEF789FC0490059921
:10554000FEF725FB2C490690FEF797FA0790FEF729
:10555000A9FC2E490870DFE01D98C06A244909683B
:10556000884227D81D98006B21490968884221D9B3
:105570001D98016BC06A081A0A210290FEF704FA0E
:105580000390FEF764FC05901D98C06A18490968ED
:10559000081A0390FEF75BFC04900599FEF7F7FAF2
:1055A00016490690FEF769FA0790FEF77BFC17494B
:1055B0000870B1E01D98006B0D490968884246D813
:1055C0001D98406B0A490968884240D91D98416B73
:1055D000006B1DE0160500209A9999999999E93F69
:1055E00012050020100500201405002030050020C1
:1055F000340500201C050020000020410000A041CF
:105600000000F04100002042000048421D0500203B
:10561000081A0A210290FEF7B7F90390FEF717FC6B
:1056200005901D98006BFE490968081A0390FEF763
:105630000EFC04900599FEF7AAFAFA490690FEF7C7
:105640001CFA0790FEF72EFCF749087064E01D98DD
:10565000406BF3490968884227D81D98806BF04950
:105660000968884221D91D98816B406B081A0A216C
:105670000290FEF789F90390FEF7E9FB05901D986B
:10568000406BE7490968081A0390FEF7E0FB0490B5
:105690000599FEF77CFAE5490690FEF7EEF90790CA
:1056A000FEF700FCE049087036E01D98806BDC498D
:1056B0000968884227D81D98C06BD9490968884273
:1056C00021D91D98C16B806B081A0A210290FEF740
:1056D0005BF90390FEF7BBFB05901D98806BD049EA
:1056E0000968081A0390FEF7B2FB04900599FEF7CB
:1056F0004EFACF490690FEF7C0F90790FEF7D2FBAD
:10570000C949087008E01D98C06BC54909688842FE
:1057100002D83C20C4490870C6480078002839D017
:10572000C5480078002835D1C44800780A281DDD16
:10573000BD480078C149097888420CDC0020C04986
:105740000870BC490870BD490870B748007841B27C
:105750001F98017034E0B9480078401CB7490870C0
:105760000846007841B21F98017029E0B4480078DB
:10577000142825DCB1480078401CB0490870084660
:10578000007841B21F980170AD480078401CAC49C8
:10579000087015E0AB480078002803D1AA480078CB
:1057A000002808D0A9480078002804D100211F98BB
:1057B000017005E01CE19C48007841B21F9801701F
:1057C000A3480078002839D09B480078002835D1BC
:1057D000A04800780A281DDD9F4800789D49097877
:1057E00088420CDC00209D4908709949087099494D
:1057F00008709948007841B21E98017033E09548CE
:105800000078401C934908700846007841B21E9801
:10581000017028E091480078142824DC8D48007835
:10582000401C8C4908700846007841B21E980170EF
:105830008A480078401C8949087014E0884800783C
:10584000002803D187480078002807D07F480078D7
:10585000002803D100211E98017004E07E480078E2
:1058600041B21E9801707E480078002803D17D481F
:10587000007800280CD074480078002803D17148C3
:105880000078002804D000211E9801701F98017034
:1058900075480088022807DC74480088022803DC69
:1058A000734800787349087000211E9841561D986E
:1058B0004068814206D200211F9841561D984068D9
:1058C000814202D3002115980160159800680028D4
:1058D00009D1694908705D490870564908705C49EA
:1058E0000870554908705C48007800280BD0614862
:1058F0000078C007C00F002805D11E9800784042EC
:1059000041B21E9801704848007800280BD05948D1
:1059100000788007C00F002805D11F98007840420A
:1059200041B21F98017053480078C007C00F534917
:105930000978884229D04F480078C007C00F002856
:1059400011D04F480078801C41B21E980170002190
:105950001E984156002918DA464800784008400051
:105960004449087011E046480078801E41B21E98F4
:10597000017000211E984156002906DD3D4800783F
:1059800040084000401C3B4908703A4800788007B6
:10599000C00F3C490978884229D0364800788007F2
:1059A000C00F002811D038480078801C41B21F98E1
:1059B000017000211F984156002918DA2D480078FF
:1059C000022188432B49087011E02F480078801E7F
:1059D00041B21F98017000211F984156002906DD31
:1059E0002448007802218843801C2249087000BFA7
:1059F00026480078264908701E98007820490870CB
:105A00001F980078204908701A480078C007C00F16
:105A10001A490870174800788007C00F194939E003
:105A2000340500200000F0411D0500200000204248
:105A300000004842FF040020010500200B05002063
:105A400009050020050500200405002000050020B0
:105A5000FE0400200A0500201C0500200805002087
:105A600002050020030500201A050020180500206B
:105A70002205002021050020FC0400202305002031
:105A80001E050020240500201F05002042050020DF
:105A900041050020087017B000BD000070B5064633
:105AA0004A4800884A490968884205D94748008819
:105AB00047490968441A04E0454800684349098891
:105AC000441A4448008844490968884206D9414834
:105AD000008841490968401A041905E03E480068F9
:105AE0003C490988401A0419002E18D07D20C000B6
:105AF000844201D9032510E019204001844201D9D4
:105B000004250AE0FF200130844201D9052504E084
:105B1000642C01D90A2500E00A250A2500E00125A8
:105B2000012D07D100202D4908602D4908602D491D
:105B3000087017E012E02948006825490968401AF2
:105B4000264908602648006823490968401A244904
:105B5000086024480078401E2249087021480078D7
:105B6000A842E8D21D4800681849098840181B4916
:105B700008601B48006817490988401818490860E0
:105B800018480078401C174908700846007800281B
:105B900010DD0846017811480068FDF7F5FE0C4954
:105BA0000860104801780E480068FDF7EDFE0A49CC
:105BB00008600AE005480088054908600548008833
:105BC0000549086000200749087070BD10050020D5
:105BD0003005002012050020340500203805002083
:105BE0003C050020400500202DE9F04104F0FAFAC0
:105BF000144F0546002600BF07EB06142078012845
:105C000010D160780128606812D0A8420AD8A06834
:105C100028446060E068804720706068A84201D234
:105C200001206070761CF6B2082EE5D3BDE8F08145
:105C3000A842F7D8A06828446060E06880472070D8
:105C40000020EEE77C040020014805F097B9000031
:105C5000B8010020014806F06DBD0000DC01002005
:105C60000C4810B5807978B1FEF768FF002003F08A
:105C7000F1F80948006803F007FA40F20C5003F00D
:105C8000D9F9044805F034FABDE810404FF48020FB
:105C900000F0CABEDC010020D4010020FEE70000B5
:105CA00070B5064D002400BF55F8240002F019FD20
:105CB000641CE4B2032CF7D370BD0000E0CC0008F4
:105CC00070B50425054E002406EB0410006802F0B0
:105CD00008FD641CE4B2AC42F6D370BDF8CC0008F9
:105CE0002DE9F0470746C0780C46C1074FF0020681
:105CF0004FF001054FF0B20919D00021022000F049
:105D000013FDA8463879002100F0C2FC00210120D3
:105D100000F0FAFC0021032000F0DAFC01214046EB
:105D200000F0C0FD267084F80190A57028E01549A8
:105D3000C20602D50D60BDE8F08780060AD512487C
:105D40000E60416A0029F6D1114A1049D2680A60F2
:105D5000C561F0E70021022000F0E6FC002739468B
:105D6000384600F0D1FC0021084600F0B1FC0121CA
:105D7000384600F097FD267084F801900020A0704E
:105D8000E570D8E72C0300204C0600200800002016
:105D9000ACCC00082DE9F0470C46C278012502265C
:105DA000B427DFF894900179012A10D04FF0000851
:105DB000012935D0022908D100F0CAFC267067708D
:105DC000A57084F8038026716071BDE8F087012911
:105DD00010D00229F9D14079804602F077FA404686
:105DE00000F0BCFC26706770A570E570267184F821
:105DF0000580EAE74A46407912F84D1F41F001015B
:105E0000117021F0FE0100B1891C89F84D1000F0DD
:105E10002BFD26706770A570E57025716571D4E75C
:105E200000F01CFD26706770A57084F80380257152
:105E3000657189F84E50C8E75C0800202DE9FE43E3
:105E4000054600200C460090019002902978022619
:105E50008E4F4FF00108022906D080297DD0FD2900
:105E60007CD00020BDE8FE836A78B02A06D0B22A32
:105E70001AD0B42A20D0B82A78D15BE0A97801F0F2
:105E80000700012804D0022802D0042800D00220F4
:105E900001F0800100F048FCB02026706070002105
:105EA00084F80280084626E0A87880065ED5214660
:105EB0002846FFF715FF59E0AA78D30704D02146FA
:105EC0002846FFF767FF51E0930724D5E9784FF0A4
:105ED000B407C90712D0687903280AD800F0D2FCA9
:105EE00001F06CFF26706770A67084F8038084F858
:105EF0000480A879002100F0D5FC37E02670677097
:105F0000A67084F80380207100F0B6FC607100F088
:105F100035FCA0712AE0100728D5217068786070E0
:105F2000A878A070E878E07017F82C0F20717878C6
:105F300060711BE0A978490718D555218DF800102C
:105F400056218DF8011009218DF802108DF80300FB
:105F500004216846FEF780FA01E009E086E08DF84A
:105F600004000521684600F0A1FF7AE70C2079E7DC
:105F700029882180A978A17084F80380A9784246F5
:105F8000642943D00ADC022911D0032917D03F4DE0
:105F9000143504291DD0052966D129E067294AD086
:105FA0006E294DD0832957D0F1295DD15AE038A010
:105FB000016861604168A1608068E06054E0786BCE
:105FC0006060B86BA060B88FA08197F83E00A073A6
:105FD0004AE02E212846FDF73FFD2E21401CFDF70B
:105FE0003BFDC21B2946201D143AFDF7F7FC3BE0A0
:105FF0002E212846FDF730FD2E21401CFDF72CFDFB
:1060000050F8011F61604068A0602DE0F621217109
:10601000D9216171A721A1717A21E1712072607289
:10602000FF21A1721F21E172D82121731321617315
:10603000A073E07318E057F80D0F6060B8880FE0A8
:106040001021217160710B20A0710820E071227273
:1060500062720320A07207E010A00168616080886E
:10606000208101E00A2020710F20FBE6FD20207036
:106070006070A670F120E070786BC4F80A00B86B0D
:10608000C4F80E00B88F60821420EBE65C08002094
:106090004465636F2050726F204D5700312E302EB3
:1060A0003000000002E008C8121F08C1002AFAD11F
:1060B00070477047002001E001C1121F002AFBD188
:1060C0007047F0B5036915460027CBB9FEE7DC88B9
:1060D0009E88B44201D19E68A6B11E68365D641CDC
:1060E000A4B2DC80D0F80CC0CCF38F2C644500D374
:1060F000DF809C68012C00D19F6001F8016B521E6B
:10610000002AE4D1A81AF0BD2DE9F0410E4607009F
:10611000144601D0154607E0FEE7786831788268BA
:1061200038469047641E761C002CF6D12846BDE800
:10613000F08100000748016841F008010160016832
:106140000907FCD4016841F00401016001684907B6
:10615000FCD47047082401400905A1F580110128ED
:106160000CD0022809D10A48026822F440120260C9
:1061700001F44011026811430160704704480C3873
:10618000026822F47002026001F47001F2E700007C
:106190003824014010B540F2096002F04BFF0320A3
:1061A00002F010FE0021022000F026F94FF46021D9
:1061B000012000F057F8002000F014F801210846F3
:1061C000FFF7CAFF01220B21002000F085F8012112
:1061D000084600F029F800F01BF8BDE81040FFF772
:1061E000A9BF000005490028086802D040F40060FB
:1061F00001E020F4006008607047000008240140BE
:106200000248016821F00101016070470824014043
:1062100004480168C90703D1016841F00101016028
:1062200070470000082401400D4A00294FEAC07160
:106230000AD019B1116841F48011116080070ED5A0
:10624000106840F4004009E019B1116821F4801190
:106250001160800703D5106820F40040106070477B
:1062600008240140084A012809D0022806D11068F4
:1062700020F4E04010601068084310607047106818
:1062800020F46020F6E700000824014002490A6873
:1062900082430A607047000000240140034A01461F
:1062A000002012680A4200D00120704700240140FB
:1062B0000148B0F8640070474C0500200020054AF2
:1062C000014600BF32F81130491CC9B218443229C6
:1062D000F8D370474C05002070B51F23062802D262
:1062E0001A4D2C6814E00C280CD2184E361F346856
:1062F000801F00EB8005AB409C4301FA05F0204372
:1063000030600DE010280BD2104D083D2C680C3881
:1063100000EB8006B3409C4301FA06F0204328605E
:1063200007230A2903D2094C243C206805E01329DD
:106330000AD2064C283C20680A3901EB41018B4007
:1063400098438A400243226070BD0000342401401B
:106350002DE9F04706463E2002F0C0F9062003F082
:106360004FFF242002F0BAF90024DFF86080184FB4
:10637000184DA146B44214D20220FFF787FF012036
:1063800000F02AF80220FFF789FF0128FAD1D8F897
:10639000000080B225F814003968884203D93860BB
:1063A00001E025F81490641CE4B2322CE2D92EB13D
:1063B00005EB460030F8020CA5F864003E2002F020
:1063C00090F9BDE8F047242002F08BB94C2401403D
:1063D000000000204C0500200649C20703D00A68CF
:1063E00042F480020A60800703D5086840F4001078
:1063F0000860704708240140154B1A1F00294FEA16
:10640000C05111D0002903DA116841F48071116084
:10641000410503D5116841F480611160800715D5ED
:10642000186840F0020010E0002903DA116821F436
:1064300080711160410503D5116821F480611160FC
:10644000800703D5186820F002001860704700002C
:10645000082401402DE9F0410D460446FDF751FEA8
:10646000601E2D2839D814F0070600D10826DFF861
:10647000B88008EBC607387900F0010158F83600FB
:10648000C06800F085FC3879C0F3400158F8360048
:10649000006900F07DFC3879C0F3800158F83600BF
:1064A000406900F075FC641EE01704EB50701F4F4C
:1064B000C0F3C70600244FF0010800BF08FA04F03B
:1064C000304257F8240002D002F00BF901E002F04C
:1064D00005F9641CE4B2032CF0D3681E1B2821D8F4
:1064E000134C04EBC506307900F0010154F8350077
:1064F000406800F04DFC3079C0F3400154F835009D
:10650000806800F045FC3079C0F3800154F8350014
:10651000C06800F03DFC54F835000068BDE8F0416B
:1065200002F0DCB8BDE8F08138CD0008E0CC00080E
:1065300080CD0008014600205FF0010202FA00F35E
:106540008B4204D0401C2028F8DB4FF0FF3070470E
:1065500010B540F21C7002F06DFD02F0D5F806484F
:106560000168A1F52A42AA3A04D100210160034939
:106570000420486010BD0000502800404C06002058
:1065800070B519484168B1F5B76F02D840F2B951FA
:1065900005E04EF26E52914203D94FF21D31416037
:1065A00070BD124C002100BF54F8213042689A425D
:1065B00015D904EB81056D68AA4210D8D21A4FF4A0
:1065C000C8767243EB1AB2FBF3F201EBC10303EBA3
:1065D000011102EB011101F2B95141609621491CF0
:1065E00089B29629E0D370BD0C08002018D80008A5
:1065F00070B5194840F25A628168914201D28260B6
:1066000070BD48F65B22914203D949F6681181605A
:1066100070BD124B002100BF53F8212084689442C2
:1066200015D903EB81056D68AC4210D8A41A4FF45C
:10663000C8767443AA1AB4FBF2F201EBC10404EB6E
:10664000011102EB011101F25A6181605921491CCB
:1066500089B25929E0D370BD0C08002074DA000813
:1066600010B500F05BF8012804D0022804D00428FB
:106670000AD103E0082102E00A2100E00C210348CE
:1066800005F022F9002800D0012010BD36060020B8
:10669000034A0029D06001D000F0B6B8704700006E
:1066A0004C06002000B58BB02C2206496846FDF749
:1066B00095F905490898086004490798C8610BB026
:1066C00000BD000000340008080000204C06002037
:1066D00004280BD8064A002902EB8000054A00680E
:1066E0001060054A106201D000F08EB870470000BB
:1066F000ACCC0008080000204C0600200148007ABD
:10670000704700004C060020034A0029906001D029
:1067100000F07AB8704700004C060020014800796C
:10672000704700004C060020034A0029506001D049
:1067300000F06AB8704700004C06002003490A6860
:10674000824202D0086000F05FB870474C0600201B
:1067500001480069704700004C06002070B5064CE7
:1067600021696568814204D002216160206100F0E6
:106770004BF8656070BD00004C0600200148007FAA
:10678000704700004C06002010B540F2065002F0A1
:1067900051FC00F0B5F8002000F0C2F802F018FA41
:1067A000BDE81040AFF3008010B52C221249134809
:1067B000FDF714F90A21114800F08CF80F4CA16A7A
:1067C000814217D02C212046FDF72FF9012002210C
:1067D000C4E90110322121616421C4E905100020BF
:1067E000E06108480649006808602062BDE8104082
:1067F00000F00AB810BD0000003400084C0600206C
:1068000008000020ACCC00082DE9F041114C00F04C
:106810006FF80A21104800F05DF80F490D468862B4
:1068200000F066F9342000F017F9204600F022F954
:106830002C2700262046296800F06AF9241D2D1D0A
:10684000361DBE42F6D3342000F006F9BDE8F04113
:1068500000F008B9003400084C06002001484069E7
:10686000704700004C06002002494A69824200D06D
:10687000486170474C06002001488069704700005D
:106880004C06002070B5064CA1696568814204D0B1
:1068900002216160A061FFF7B7FF656070BD000075
:1068A0004C06002070B50A4C0128E06105D0022892
:1068B00003D0032801D00020E061002907D0022086
:1068C0006568606001206062FFF79EFF656070BDD3
:1068D0004C06002010B50022044B03E050F8224083
:1068E0001C60521C8A42F9D3186810BD0030024067
:1068F0000248816841F00101816070470030024028
:1069000005484FF0FF3101610160002141600349FA
:10691000416101218160704700300240B71DC10410
:1069200004498A6822F060028A608A6802438A60A9
:1069300070470000003002407FB504464FF4E1602C
:1069400002F078FB184D284603F06AFA022C02D0B8
:10695000012C02D004E00B2001E042F6DF6002903F
:10696000124869460078ADF800000020ADF8040038
:10697000ADF80200ADF806008DF80C00284603F0D3
:10698000A5FA284603F00CFB0121284603F0EEFA95
:106990000121284603F092FA0121284603F005FB65
:1069A000284603F082FA7FBD00200040D00100207D
:1069B000F0B5184D2B6883432B602E1D336883433D
:1069C0003360331D1C6884431C601C1D276887438B
:1069D000276011B1012907D103E02968014329602B
:1069E00002E031680143316052B1012A0ED0022A1F
:1069F00005D1196801431960216801432160F0BD88
:106A000019680143196021688143F7E719688143D8
:106A1000F1E700000004014002490A6802430A60ED
:106A20007047000000040140014908607047000001
:106A30001404014006490968064A0142126802EA44
:106A4000000202D00AB10120704700207047000008
:106A500014040140000401400149C860704700006F
:106A6000002002400248016941F080010161704745
:106A70000020024070B505464FF47026304600F005
:106A800017F8002810D1094C206940F0020020615D
:106A90006561206940F040002061304600F008F850
:106AA000216921F00201216170BD00000020024037
:106AB00000B5034600F008F85B1E012802D1002B48
:106AC000F8D1042000BD000008490020CA68D207A0
:106AD00001D001207047CA68D20601D50320704753
:106AE000C9684907FBD5022070470000002002401A
:106AF00004480169090603D503494160034941601F
:106B0000704700000020024023016745AB89EFCDAC
:106B1000F0B506464FF470270D463846FFF7C8FF1C
:106B200000280CD1064C206940F00100206135603E
:106B30003846FFF7BDFF216921F001012161F0BD59
:106B40000020024070B540F2115002F073FA40F29A
:106B50000E6002F06FFA4FF4C0644FF09045234688
:106B600001220221284600F004FB234603220021D3
:106B7000284600F021FB22460121284600F092FA27
:106B8000BDE87040014803F0D4BA0000B80100200D
:106B90002DE9F04704461D4617460E46C0B2DDF803
:106BA000209000F06BFA6FF0050830B1C068FFF775
:106BB000C1FC002801DB102802D34046BDE8F08765
:106BC0000F4901EB0010B0F90010A1420DD142684D
:106BD000BA420AD14288B24207D18268AA4204D19D
:106BE000C268AA4201D10020E8E7491C02D06FF038
:106BF0000600E3E7048047604680C0E90259F2E7F7
:106C0000780300202DE9F0410A46C0B200F036FAC0
:106C100004006FF0050750D0294D012A01D0B2B30E
:106C20004BE0E068FFF786FC002846DB102844D2E2
:106C3000244901EB0016B6F90010491C3DD000EBC9
:106C4000400005EB8005A08802F0F4F94FF4C06025
:106C500002F0F0F9F06842780178287A01F0FAFB46
:106C6000617C207C02F0D2FC708820B1012805D024
:106C7000022808D10CE00022686801E0686801225F
:106C80000021FFF795FE6868FFF7CEFE12E002E0F4
:106C900002226868F4E7C068FFF74CFC00280CDBB0
:106CA00010280AD200EB400015EB800005D0007AD6
:106CB00001F0C4FB0020BDE8F0813846FBE700008E
:106CC000F4E00008780300202DE9F04116460D4657
:106CD000C0B200F0D3F904004AD0A08802F0AAF9AB
:106CE0004FF6FF77E5B1052D25D0012D31D0022DCE
:106CF00032D0032D32D0042D32D0D4E90203002249
:106D0000022100F036FAD4E902030322002100F048
:106D100053FAD4E902023146BDE8F04100F0C2B9AD
:106D2000D4E902030022012100F023FAD4E902038E
:106D30003A46002109E0D4E902030022012100F0D3
:106D400018FAD4E902033A460121BDE8F04100F007
:106D500033BA0022032105E0002202E0012200E014
:106D600002220021D4E90203BDE8F04100F001BA9B
:106D7000BDE8F08110B50024C0B200F07FF928B161
:106D8000C168806800F0F0F900B10124204610BD10
:106D900010B50A46C0B200F071F900280AD0C168E7
:106DA00080681AB1BDE8104000F0B0B9BDE81040ED
:106DB00000F0AAB910BD70B50468858981682068A3
:106DC00003F094FD05F00F01206804F048F9C5F3C5
:106DD0008111206804F01BF9C5F30111206804F04B
:106DE0002AF9C5F30021206803F040FEC5F34021D5
:106DF000206804F096F8206804F000F90421206867
:106E000004F011F90821206804F021F9206803F04A
:106E1000B9FE002070BD10B5046803291DD01029EB
:106E200012D0112919D194F90400012100F01F0298
:106E300091404009800000F1E020C0F88011052158
:106E4000206804F02FF808E0A2796179207901F038
:106E500001FB0521206804F02FF8002010BD70B55B
:106E600004684FF0FF3540F20571206803F097FE8B
:106E700018B12068406AC0F30805284670BD70B597
:106E800004680D4640F207763146206803F087FE1D
:106E90000028F9D020688562012070BD0A460146AD
:106EA0000148FFF70EB90000B80100200A4601466C
:106EB0000148FFF729B90000B801002000B585B0EE
:106EC00014216846FCF7B1FD01208DF8000000F0A8
:106ED000E3F8F0B102F082FC0822694601A8FCF751
:106EE0007DFD55208DF8000056208DF80100F4201E
:106EF0008DF8020008208DF803000C216846FDF78C
:106F0000ABFA8DF80C000D216846FFF7CFFF05B0F6
:106F100000BD0821684604F0D7FCF8E72DE9F047EA
:106F200086B018216846FCF780FD01258DF80050D9
:106F30008DF801508DF8085000F0AEF8E8B38DF8E8
:106F4000005000248DF801508DF802408DF8034068
:106F5000019402F043FC694608220E4601A8FCF7A2
:106F60003DFD55278DF800704FF056088DF80180D3
:106F70004FF0F4098DF802904FF0080A8DF803A045
:106F80000C216846FDF768FA8DF80C000D21684663
:106F9000FFF78CFF8DF800508DF801408DF802400E
:106FA0008DF80340019402F019FC08226946301D57
:106FB000FCF714FD8DF8007000E012E08DF8018000
:106FC0008DF802908DF803A00C216846FDF744FA75
:106FD0008DF80C000D216846FFF768FF06B0BDE88C
:106FE000F0871021684604F06FFCF7E73EB50F4AC2
:106FF00092F86C10B9B1082900D9072101EB4101C1
:1070000002EB81044FF4A063E169CDE90010029323
:1070100054F8081C54F8140C23696268FDF7D5FA7B
:10702000034948603EBD0121E8E700001C0700203D
:107030000C0800203EB50F4A92F86C10B9B108292F
:1070400000D9072101EB410102EB81044FF4A06359
:10705000E169CDE90010029354F8081C54F8140CAF
:1070600023696268FDF7B1FA034988603EBD0121DA
:10707000E8E70000940700200C080020412807D210
:10708000044900EB800001EB80000168491C00D13D
:1070900000207047E0DB00080148007870470000DE
:1070A0005C080020F0B5036A446A002501260F271A
:1070B00006FA05FC1CEA020F09D04FEA850C07FA14
:1070C0000CFE23EA0E0301FA0CFE4EEA03036D1CCC
:1070D000ADB2082DECD3082506FA05FC1CEA020F18
:1070E0000BD04FEA850CACF1200C07FA0CFE24EA19
:1070F0000E0401FA0CFE4EEA04046D1CADB2102D14
:10710000EAD303624462F0BD8162704781617047D7
:1071100070B5144D002400BF04EB440015F8201096
:1071200069B1052912D0062905EB800014D040680A
:1071300001F09DFA641CA4B2242CEDD370BD05EBC4
:107140008000017A406801F0CFFAF3E705EB800098
:10715000406801F0C0FAEDE78168406801F083FA09
:10716000E8E7000068CE00080069084000D0012070
:1071700070472DE9F047894601689246C2680024AD
:1071800001274FF0030C07FA04F51D420BD06600EF
:107190000CFA06F5A943AA4309FA06F80AFA06F515
:1071A00048EA01012A43641CA4B2102CEBD301600D
:1071B000C260BDE8F0870000F0B50129416831D018
:1071C00099434160816801270325A2F57F44FF3C74
:1071D00013D0002407FA04F61E4208D0660005FA10
:1071E00006FC21EA0C0102FA06FC4CEA0101641CCF
:1071F000A4B2102CEED38160F0BDC66B5FF000042A
:1072000007FA04F21A4206D04FEA440C05FA0CFCC5
:107210004CEA01011643641CA4B2102CF0D3816027
:10722000C663F0BD1943CCE72DE9F04F87B01421B8
:107230006846FCF7FAFB04F029FAFFF76FFA0690AC
:10724000FFF75CFAFB4C05905526207956276D46D2
:107250004FF0F4094FF00A0B4FF00008032801D15A
:107260006079A0B1E079FF287BD0A079022878D39B
:107270006079002875D084F806800698A246012817
:1072800072D0A024022870D004286FD101E201F04E
:107290007BF801F00DF810B11E2001F01FFAE6494D
:1072A000002081F8008002F05BF90699012905D0E1
:1072B000C02002295BD0042932D182E009208DF858
:1072C000000084F810808DF80180A08C8DF80200F9
:1072D000000A8DF80300208D8DF80400000A8DF857
:1072E0000500FFF7D9FEB8B102F078FA0822694626
:1072F000281DFCF773FB8DF800608DF801708DF888
:10730000029008208DF803000C216846FDF7A4F8D0
:107310008DF80C000D217FE0082182E084F80480C4
:10732000C4F82480C54AC4F82880C549A4F8208040
:10733000C2F80C80C1F80880C2F80480C1F800804F
:10734000C2F80880C1F80480C1F80C80C1F8108030
:10735000C1F8148081F8188081F81980B949404635
:10736000087007B0BDE8F08F6AE0DAE062E207215A
:107370008DF8001020748DF801000598B8B1B2485E
:107380000068022813D1B148007880B1208D8DF8B3
:107390000200000A8DF80300B4F824008DF8040000
:1073A000000A8DF80500FFF777FE40B11EE0A08CC3
:1073B0008DF80200000A8DF80300208DEEE70A2107
:1073C0002FE002218DF8001020748DF80100A08CB0
:1073D0008DF80200000A8DF80300208D8DF804005E
:1073E000000A8DF80500FFF757FEC8B102F0F6F964
:1073F0000A226946281DFCF7F1FA8DF800608DF825
:1074000001708DF802908DF803B00E216846FDF7EB
:1074100023F88DF80E000F216846FFF747FD7DE742
:107420000C21684604F050FA0028F8D0142269466E
:107430008748FCF7D3FA01210620FDF7B3FA6DE780
:10744000BAF82000E8B301214FF6FF72084600F0B9
:107450008FFF022002F084F89AF8041050460029A9
:107460009AF8071056D0012202EB41018AF8101059
:1074700009208DF800009AF810108DF801109AF884
:1074800008108DF802109AF809108DF803109AF878
:107490000A108DF804109AF80B108DF80510BAF840
:1074A00020008DF80600000A8DF80700FFF7F4FDB4
:1074B00078B302F093F908226946281DFCF78EFA8A
:1074C00000E010E08DF800608DF801708DF80290FA
:1074D00008208DF803000C216846FCF7BDFF8DF8ED
:1074E0000C000D21A3E1012002F03AF89AF80710F0
:1074F000490011F0FF018AF8101006D001214FF663
:10750000FF72084600F034FFB2E71E22FF21002080
:10751000F8E704E049000174AAF82080A8E70821F0
:10752000A4E1BAF82000B8B1022002F019F8012154
:107530004FF6FF72084600F01BFF9AF80410504601
:1075400059B33D490A78C2B381F80080A0F8208081
:10755000C27904EB420135E0012002F001F89AF80B
:107560000720354804EB4201C9B28AF810100278AE
:10757000521CD2B20270052A01D905220270A0293C
:1075800007D001214FF6FF724FEA010000F0F0FE34
:107590001AE01E22FF210020F8E7C27904EB420125
:1075A00001742548AAF820800178491CC9B20170ED
:1075B0000A2909D980F800B006E0FFE7C279A121C5
:1075C00001EB42018AF810109AF810105046A929D0
:1075D00001D1A421017407218DF80010017C8DF8E0
:1075E0000110059929B318490968022936D11749AC
:1075F0000978F1B1817A8DF80210C17A8DF8031003
:10760000017A8DF80410417A8DF80510BAF820003F
:107610008DF80600000A8DF807000E4800788DF8F6
:1076200008000D4800788DF809009DF8020000B3AD
:107630002AE013E0B4060020050000200C0800201A
:107640002C080020690100202C03002008000020E5
:10765000360600200C0000200D000020017A8DF875
:107660000210417A8DF80310817A8DF80410C17AE6
:10767000CAE79DF8030038B99DF8040020B99DF8C9
:10768000050000283FF46DAEFFF706FDF0BB0A21B0
:10769000ECE0BAF82000D0B3022001F061FF012134
:1076A0004FF6FF72084600F063FE9AF804109AF84D
:1076B0000720504661B3A12101EB42018AF8101066
:1076C00002208DF800009AF810108DF801109AF839
:1076D00008108DF8021005919AF809108DF8031022
:1076E0009AF80A408DF804409AF80B308DF805306E
:1076F000BAF820008DF80600000A8DF807005D48F2
:107700008E4600788DF808005B4802E079E01CE0C6
:1077100033E000788DF809005848594A0168594803
:10772000012930D0DFF860C102292FD0032936D0DB
:10773000042937D0052937D006293FD0072940D062
:10774000082949D0092949D04FE0012001F008FF5C
:107750009AF8072004EB4201C9B28AF81010A02958
:1077600007D001214FF6FF724FEA010000F000FE42
:10777000A6E71E22FF210020F8E704EB4201017476
:10778000AAF820809CE7B2F8741001E0BCF87410ED
:107790008DF806105FEA11218DF8071015E03B49BE
:1077A000098AF5E73A490AE0B2F87410BCF8742087
:1077B00011444A088DF80620490AEDE73549098841
:1077C000E6E78DF806808DF8078041798DF808107E
:1077D00080798DF8090008E02F4800E02F480088E4
:1077E0008DF80600000A8DF80700059830B9BEF143
:1077F000000F03D114B9002B3FF4B3ADFFF74CFCDD
:1078000090B301F0EBFF0A226946281DFCF7E6F869
:107810008DF800608DF801708DF802908DF803B03E
:107820000E216846FCF718FE8DF80E000F21684601
:10783000FFF73CFBBAF80810CAF82410BAF80A108F
:10784000CAF82810BAF82010AAF82C1003218AF8D8
:107850000410CAF81880CAF81C80AAF82080CAF858
:107860000880CAF80C807CE5FFE70C21684604F02C
:107870002BF8DFE70C0000200D000020280300207B
:107880001C0700204808002094070020E406002080
:1078900070010020140000201005002012050020B7
:1078A0000129016803D021F480610160704741F42F
:1078B0008061FAE70029016803D021F400610160CA
:1078C000704741F40061FAE72DE9F041044616469D
:1078D0000D46022001F0C8FA374BB0FBF3F13F2907
:1078E00000D33F21626822F07F020A436260334A7C
:1078F000954214D8B0FBF3F1491C3F2901D33F2135
:1079000002E0022900D8022121626900B0FBF1F0F7
:10791000042800D20420E169C0F30B0029E0DFF85D
:10792000A0C005EBC5034FF47A7705EB450203EBE6
:107930000513654521D84FF496756943B1FBF7F1FE
:10794000491C216246B1B0FBF3F0E16941F480418A
:10795000E161010506D007E0B0FBF2F0E16921F436
:107960008041F5E740F00100E16941F40041E16147
:10797000E1690143E161BDE8F081C1EB0111C9009A
:10798000B1FBF7F1491C216286B1B0FBF3F0E1696C
:1079900041F48041E161E16941F40041E161E16963
:1079A0000143E1610120C4F89000E4E7B0FBF2F08C
:1079B000E16921F48041EDE740420F00A08601001B
:1079C000801A06000069C0B270470161704700006C
:1079D0000A4910B540180CD0B0F5806F0CD140F2B8
:1079E0001644204601F042FB2046BDE8104001F05D
:1079F0002FBB40F21544F4E710BD000000ACFFBF00
:107A000001F0FE0141F00101C1607047016841F0E1
:107A1000010101607047A1F5A062013A09D000EBB5
:107A20009110026801F01F03012199408A4302600E
:107A3000704741698069704700EB9110006801F060
:107A40001F0201219140084000D001207047921C84
:107A500003D041F001010161704721F00101FAE713
:107A600010B5046824F002040C430460C3F3090158
:107A70000A43826010BD016841F480710160704763
:107A8000016841F4007101607047000010B50120E9
:107A900000F0B2F800F01AF8BDE8104012210148D9
:107AA000FBF7C3BF060900201346E82202F0A6BC7C
:107AB0001346E82202F02ABE034800214173C17335
:107AC00001740846704700000609002008B501222D
:107AD0004EF6EE616846FFF7E7FF08BD2DE9F0417D
:107AE00007460C46012803D0022C45D26CB10FE0AA
:107AF000002941D1012080F310880D2211463C4815
:107B0000FFF7D2FFFFF7E2FF0AE0012080F31088C1
:107B10000D2211463648FFF7C7FFFFF7D7FF14B90C
:107B2000002080F31088324C4FF001066079A27972
:107B3000237A42EA0022E07943EA0023607A0102D4
:107B4000A07A0843E17A0D02217B294325785FEA78
:107B5000C57C4FF0000511D06673E673FFF7DEF9C0
:107B600064210520FCF71EFF207C401CC0B220745D
:107B7000022801D32574E573BDE8F0811A4302D0D1
:107B8000E37B012B15D0637C33B1A378802BF3D03A
:107B900065746573E5732574DAB16673012F13D0CC
:107BA0003A4600F03DF8BDE8F04164210520FCF7BD
:107BB000F9BE0121601D02F004FA0520FCF77EFBEE
:107BC0006673E6736674D7E70021601D02F0F9F969
:107BD000E9E7A0788228CFD1E07B0028CCD1FF2034
:107BE000E073FFF76BF90348057045808580C3E7B4
:107BF000060900200003002008B520B13F208DF8C1
:107C00000000072002E000208DF800008DF8010040
:107C1000022240F2B7616846FFF74AFF08BD000044
:107C20002DE9F04F85B00D460646144614216846EE
:107C3000FBF7FBFE5F49012201F112008B7B93B33E
:107C40004FF0020B012B35D0022B38D04FF000083B
:107C5000032B81F80E802AD18388018846895D1A1A
:107C600043884FF05609F61A7543C68800899B1B56
:107C7000401A514903FB005C55260F788B884888D1
:107C80006D464FF0F40A4FF0F00EBCF10F0F36DDE9
:107C90008446401C4880BCF1010F15D981F8008052
:107CA000A1F8048014E0FFE7068045808A7305B0E0
:107CB000BDE8F08F8680C58081F80EB0F7E70681B9
:107CC000458103208873F2E7012F01D1022BEED802
:107CD000022C07D0032CEAD18DF800B08DF801E01A
:107CE000042025E08DF800208DF8062042E068464B
:107CF00003F0EAFDDBE76846FFF7D8F8D7E71CF1A9
:107D00000F0FD4DA9C465B1C8B80BCF1010F03D9AA
:107D10000A70A1F8028002E00FB90228C7D8022C2D
:107D200023D0032CC3D18DF800B08DF801E00820DA
:107D30008DF80700FFF7B0F9B8B301F04FFD0A2244
:107D40006946281DFBF74AFE8DF800608DF801900A
:107D50008DF802A00A208DF803000E216846FCF77A
:107D60007BFB8DF80E000F21C5E7FF208DF800206A
:107D70008DF80600FFF790F9C0B101F02FFD082241
:107D80006946281DFBF72AFE8DF800608DF80190EA
:107D90008DF802A008208DF803000C216846FCF73E
:107DA0005BFB8DF80C000D21A5E701E008219EE7A3
:107DB0000C219CE706090020000300200149002057
:107DC000887370470609002000B58FB03AA004AB55
:107DD0000068019039A007C883E807003AA03CA2D8
:107DE000D0E90010CDE9021007CA07AB83E807000D
:107DF0003AA10122D1E90001CDE90A0139A00068C8
:107E00000C9039A000680D9038A09DF834100068DF
:107E10000E900DF1350000F06FF89DF8041003226C
:107E20000DF1050000F068F89DF810100A220DF120
:107E3000110000F061F89DF8081005220DF109000D
:107E400000F05AF89DF81C100B220DF11D0000F0F7
:107E500053F89DF8281005220DF1290000F04CF888
:107E60009DF8301001220DF1310000F045F801229B
:107E70001021684600F03CF89DF8000010F0040066
:107E80008DF80000F3D19DF8381001220DF1390072
:107E900000F032F801227121684600F02DF89DF8BB
:107EA0000000012200F0FC008DF8000071216846FE
:107EB00000F022F80FB000BDD0403F034001024B5C
:107EC000D0D0000101010100500A100A1028000062
:107ED000700003D0D0010101016363EBD3104008AF
:107EE00006070000D0020000D0000000D0200000F3
:107EF0001346882202F098B91346882202F080BB0C
:107F000010B5144C01221421601CFFF7F1FF02226E
:107F10008021A01CFFF7ECFFA4F108016288C8884B
:107F2000101A00B2002800DA404280B23C280FD379
:107F3000CA804878401CC0B24870012808D9002087
:107F400048706078BDE8104000F0C00004F0C0BD8B
:107F500010BD00000803002010B502F077FCFFF709
:107F600033FFFFF793FDBDE81040AFF3008010B57D
:107F700040F2125001F05EF80221222000F077FB5F
:107F80000221BDE81040232000F071BB70B500F065
:107F90008FF900281CD101F08DF80446FEF76CFC27
:107FA000C5B2222000F0ADFB38B90A48407B00285A
:107FB0000ED1022C01D2FFF7A3FF232000F0A1FB7A
:107FC000012805D121462846BDE87040FFF786BD4F
:107FD00070BD000006090020034904230A2201F1B4
:107FE000280000F0E8BE000078060020074810B521
:107FF000406900F086FB08B1002010BD04480078FD
:1080000008B1012010BD01F0EDFAF5E7C0CC000881
:108010005C0800202DE9F04786B014216846FBF784
:1080200004FD00244B494C4800F08CFEDFF82491FD
:108030000028A9F104097DD000210220474BD9F87E
:10804000046001276D4600BF07FA01F2324208D0F2
:1080500003EB41025278144313F811202A54401CB8
:10806000C0B2491CC9B20829EED3FEF757FB06215E
:10807000552656274FF0080A4FF0F408012822D061
:10808000022820D0042855D126E008215CE031499F
:10809000314800F072FE4DE001F0A0FB0822694675
:1080A000281DFBF79BFC8DF800608DF801708DF8A2
:1080B00002808DF803A00C216846FCF7CDF98DF8FD
:1080C0000C000D2133E08DF800108DF80140FEF713
:1080D000E3FF0028E0D1D8E714216846FBF7A5FCB0
:1080E00002208DF80000F0208DF80100B9F804009E
:1080F0008DF80200000A8DF80300FEF7CDFF10B3E3
:1081000001F06CFB0A226946281DFBF767FC8DF81D
:1081100000608DF801708DF802800A208DF8030050
:108120000E216846FCF798F98DF80E000F2168467D
:10813000FEF7BCFED9F80410002901D189F800101F
:1081400006B0BDE8F0870C21684603F0BDFB0028AF
:108150009DD1EFE750010020A00600202ED400089A
:108160002DE9FC5F00F0A6FF00244E4E4C4F8046E8
:108170004FF0030B0125A246A6F10C09305D30B18A
:1081800001280BD002282BD0032849D181E057F8D1
:10819000240000F0B6FA10BB355541E057F8240032
:1081A00000F0AFFA10B106F804A039E089F80050E9
:1081B000D9F8082005FA04F313420ED143EA02006D
:1081C0003849C9F80800091F374800F0D6FDB8F152
:1081D000000F02D11E2000F081FA022030551FE06E
:1081E00057F8240000F08DFA08B300BFD9F8081042
:1081F00005FA04F008420FD08143C9F80810294954
:108200002948091F00F0B9FDD9F8080050EA080014
:1082100002D11E2000F065FA06F804A0A9F802A019
:10822000641CE4B2082CA9D30120BDE8FC9F052CF6
:1082300003D11E480078012808D0B9F80210481C64
:10824000A9F80200FA29EBD93CB11FE0012107206F
:10825000FCF7A8FB86F805B0E2E7FEF71DFF012852
:1082600014D155208DF8000056208DF801000F2004
:108270008DF802008DF803A004216846FCF7ECF8A5
:108280008DF8040005216846FEF710FE06F804B0DC
:10829000C6E757F8240000F034FA0028A6D1BFE75B
:1082A000C0CC000858010020A00600205C08002077
:1082B00001480078704700004C01002010B50248CA
:1082C00000F018F8012010BD600100205A2801D9E3
:1082D0005A2002E00A2800D20020024603214FF073
:1082E000804001F05EBD00000149FF20087070472A
:1082F0006001002010B504464078002836D061881F
:10830000A1F57F42FF3A0DD0491E0904090C618096
:1083100008D1FF2804D0401E10F0FF00607012D07A
:10832000A08860802078FF2820D06188A288B1EBE7
:10833000520F10D904280CD0052817D01E20BDE8F4
:10834000104000F0CBB9FF2020701E2000F0C9F9CA
:10835000E8E71D20F3E7042806D0052806D01E20F4
:10836000BDE8104000F0BDB91D20F9E710BD0000C8
:10837000044B10B51C78844203D0187059705A8091
:108380009A8010BD60010020034800214170FF2148
:1083900001701E2000F0A5B9600100200B494FF0CC
:1083A000006000F0A5F862B601F09EFA01211422E7
:1083B0000846FFF7DDFF00BFFEF736FFFFF72AFE96
:1083C000FFF7E4FDFDF710FCF6E7000000380008B9
:1083D000F0B50B30154D20F007010024144A0FE0D2
:1083E00003688B420BD38B4205D95E1A431847684A
:1083F000C3E9006700E04368136002C004E0021DA7
:1084000010680028ECD12046002802D1286808B165
:108410000020F0BD064A07481060074A121A22F0F1
:108420000702C0E9002401202860D7E748050020A2
:10843000440500203C090020380D002000F01F02F8
:10844000012191404009800000F1E020C0F8801136
:108450007047000070B505461F4800240E460068AE
:10846000234600F4E0614FF4A06081420FD006DCA7
:10847000B1F5407F16D0B1F5806F06D10FE0B1F5B0
:10848000C06F09D0B1F5E06F04D000F027F80224E6
:10849000234608E0042306E00124032303E0032429
:1084A000012300E00424C4F104008640C3F1040168
:1084B0000F20C8401040304305F1E021000181F851
:1084C000000405F01F01012088406909890001F1BD
:1084D000E021C1F8000170BD0CED00E00249084345
:1084E00002490860704700000000FA050CED00E04A
:1084F000024A1140014302480160704780FFFF1F9C
:1085000008ED00E0F0B54349434842F2BE364C68FE
:10851000424A231801250020B3420DD2CB685B1CD0
:10852000CB6003D0D071C1E9035000E0086148611D
:108530008861C8610862F0BD394B47F2B207E6189E
:108540000323BE420AD20C69641C0C61032C03D3C2
:10855000D071C1E90303EAE7C860E8E7314EA71923
:1085600042F6E066B7420CD24C69641C4C61032CA5
:1085700004D3D571C860C1E90403D9E7C8600861B4
:10858000D6E7A4F5E527083FB7420ED28C69641CF4
:108590008C61032C05D3D571C8600861C1E905035E
:1085A000C7E7C86008614861C3E71F4D42F208078A
:1085B00066190225BE4210D2CC69641CCC61032C22
:1085C00006D3D571C86008614861C1E90603B1E707
:1085D000C860086148618861ACE7144E3444B4F562
:1085E000485F12D20C6A641C0C62032C07D3D5714D
:1085F000C860086148618861C1E90703F0BDC860CF
:10860000086148618861C861F0BDFF23D371C8600B
:108610008CE70000680100201057F8FFB406002026
:108620005233F8FFD806F9FF18A9F8FF1089F8FFB0
:1086300010B5FEF787FAFEF76BFD02F025FEFEF798
:10864000A3F8FFF751FEFDF7A5FDFFF785FCFFF747
:10865000C3FC01F0DCFBFDF77BFF00F03FFEBDE853
:10866000104000F069BE0A460621FEF72DBB00222D
:10867000FEF72ABB10B50446094900EB440001EBA4
:1086800080004068FEF7D0F9064800EB041041680E
:10869000002903D08068BDE81040084710BD0000E5
:1086A000F4E00008780300202DE9F8439046DDE966
:1086B00008451F4606460022FEF706FB23463A46BB
:1086C000414630460095FEF763FA3046BDE8F84370
:1086D0000121FEF797BA0022FEF7F6BA0021FEF755
:1086E00057BB0121FEF754BB70B50C46002205466E
:1086F0001146FEF7E9FA21462846BDE87040FEF72C
:1087000047BBFEF737BB00000248016841F48071A7
:10871000016070470070004030B51F4A136823F0B5
:10872000030313601368034313601C4A106840F08E
:10873000040010604FF0E0200469194B1C60D0F871
:1087400000415C60D0F804419C60D0F80841DC60D6
:108750000469144D2C400461134CC0F880416FF43F
:108760008064C0F884414417C0F8884191B140BF8B
:1087700020BF20BF196801615968C0F800119968CD
:10878000C0F80411D968C0F80811106820F004007E
:10879000106030BD30BFEDE70070004010ED00E02C
:1087A000240900200400010019EFFFB770B5254C23
:1087B00000212078FDF74EFE207A01F021FD207A7D
:1087C000E073A17B081AC0B2FDF7C2FDFDF776FD8C
:1087D0001D4DB0F57A7F08D92968814205D22860FD
:1087E000FDF766FDA8802078A8712078401CC0B2F3
:1087F00020702E2823D3A8880026FA2819D9A87912
:108800006071A07800F044FA2071801EE0700006CC
:1088100000D5E67038210D48FBF707F909481C21FF
:108820001C38FBF702F90220A07208483038867124
:1088300001E000F053FD0448103806614661012054
:10884000207470BD48080020A0010020E40600202C
:108850002DE9F041214C00202178FDF7FBFD207A25
:1088600001F0CEFC207AE073A17B081AC0B2FDF7BC
:108870006FFDFDF723FD1A4DB0F57A7F0AD92968FF
:10888000814207D22860FDF713FDA8802078A871E7
:108890006078E87120780126401CC0B220701C2846
:1088A00005D36078052805D0401C607026702674BA
:1088B000BDE8F081A8880027FA2808D9E879A070D7
:1088C000A879A07107482670A672077101E000F030
:1088D00005FD034808388760C760E8E748080020BE
:1088E00098010020B40600202DE9F047DFF87C91C4
:1088F0005F4C604D99F80020002609EB4201498841
:1089000011B1617901291BD0C5F80C60FFF7FAFDA0
:10891000A046E079584F594CA8B17E767E616068D8
:108920000A21B0FBF1F1A160C8F8000098F8071027
:108930004746032281B1012951D0022964D069E060
:1089400000F0AAF8E2E700F021F94D49606888429A
:10895000E5D9B8686060E2E7E368012B02D02369DB
:10896000032B57D1D9F81030FF2B36D9454B42F2A3
:10897000BE3C034463451ED26078012802D0667075
:1089800026702AE02078401CC0B22070042803D34F
:108990002270EE6066705BE0032806D3636A4FF4D2
:1089A000E870834201D9E86052E0606A00EB401051
:1089B000400064233FE0324B5B42184447F2B2036D
:1089C00098420AD8C0EB403041F26213B0FBF3F09A
:1089D000E86001206070267030E0EE6038E0636986
:1089E000032B02D0A369032B14D1274B42F6DF6C73
:1089F000034463452AD3254B984227D3C01AC0EBC2
:108A0000403041F2883316E0E369032B04D0236A37
:108A1000032B01D0EE6017E01D4B42F2070C03441C
:108A2000634513D31B4B984210D35B421844C0EBF1
:108A3000403041F2A863B0FBF3F0E860EB6841F628
:108A4000FF70834200D3E86011B103E0EE6001E003
:108A5000E8686062387908B9EE603A71E86800F059
:108A60004FF8E8603884BDE8F0870000E406002095
:108A7000B40600200C0800202C080020680100200B
:108A8000AECC07001057F8FFD706F9FF08280700FB
:108A900017A9F8FFF076070038B5034614484FF4DD
:108AA00096520178009200EB8100103007C8FBF766
:108AB0000BFE104900F516600F4BC8604FF41661AD
:108AC000B0FBF1F153F82120841AA3F5D27000EB2A
:108AD000810550F821006D6803EB81012D1A49686A
:108AE0006C43891AB4FBF1F108440449486038BD6D
:108AF000E40600200C080020E4D5000868010020EE
:108B000070B590B0044620221F496846FAF766FF08
:108B10001D492022203108A8FAF760FF002168468D
:108B200050F82120A24220D200EB81035B68A342CF
:108B30001BD308AD05EB810655F821107668751A30
:108B4000A61A754300EE105A9A1AB8EE401A00EEB3
:108B5000102AB8EE400AC1EE000A00EE101A0721F2
:108B6000B8EE400A30EE800A03E000EE104AB8EE9C
:108B7000400A491C89B20729D2D3BDEEC00A10B001
:108B800010EE100A70BD000088D700080E4810B51E
:108B90000521826804E04469A41A5B1E446143769F
:108BA000437E8B42F7D2094942694B681A444261BD
:108BB000417E491C11F0FF01417603D0B2FBF1F177
:108BC000816010BD836010BD2C080020680100206A
:108BD0002DE9F04188B0244D20216846FAF725FFA1
:108BE000D5E9000142F6BD0440F63416A04201D199
:108BF000B14235D0FDF77CFF3420FDF72DFF28462C
:108C0000FDF738FF1948FDF735FF21462846FDF7E7
:108C10007FFF15483146001DFDF77AFF0427DFF876
:108C2000508000244FEA0D0608EBC40106EB8400D7
:108C3000891C01F042FA641CE4B2BC42F4D3002463
:108C400005EB840056F824100830FDF761FF641C22
:108C5000E4B2082CF4D33420FDF7FEFEFDF702FF4A
:108C600008B0BDE8F08100000030000800340008C2
:108C7000CCD0000810B5FBF761FFFBF711FF4FF4F4
:108C80004070FFF72BFCBDE8104000F079BE0000FB
:108C90000149085C70470000C8D7000870B5114D45
:108CA0000446114E295D304600F05CFF0F49887A7A
:108CB000022814D098B1012811D01A200873285D19
:108CC00000214208304601F06CF80121304601F0E5
:108CD0005BF93046BDE87040012101F0EBB824207B
:108CE000ECE70000CED70008002C01404808002027
:108CF00070B51149114E8D1D0C5C3046295D00F098
:108D000031FF0F49887A022814D098B1012811D078
:108D10001A200873285D00214208304601F041F80E
:108D20000121304601F030F93046BDE870400121A4
:108D300001F0C0B82420ECE7C8D70008002C01409F
:108D40004808002010B504460B46D4E901018842CA
:108D500001D1002010BD33B12269216800FB02114E
:108D60001846FAF73BFE6068E168401CB0FBF1F280
:108D700001FB12006060012010BD70B504468068E0
:108D8000E368421CB2FBF3F503FB152263689A42C9
:108D900001D1002070BD2368226900FB0230FAF780
:108DA0001DFED4E90201401CB0FBF1F201FB1200F0
:108DB000A060012070BD02C0002102C080E80E004A
:108DC0000120704721494A6822F440424A600A6BF8
:108DD0001F4B1A400A630A2827D2DFE800F0050972
:108DE0001113151A272B2F33086B20F4803002E063
:108DF000086B40F480300863086B20F4807013E047
:108E0000486804E0486807E0486840F480404860EB
:108E100007E0486840F480404860086B40F000403C
:108E20000863086B40F4807008637047486840F43A
:108E30000040ECE7486840F40040EDE7486840F443
:108E40004040E4E7486840F44040E5E70010024055
:108E5000FFFEFE7F034A52F8C01F21F001010143CB
:108E600011607047001002402DE9F04766A688B0F7
:108E70006ACE8DE86A0065A38046D3E90013CDE988
:108E8000041362A30020D3E90013CDE90613624B5B
:108E9000024604465968614EC1F3810121B1604D1B
:108EA000012903D0022903D031462CE029462AE0CB
:108EB00059685F68C1F38341C7F3C06CDF6AFF0F75
:108EC000BCF1000F01D0113102E00F2917D0891C2D
:108ED00007B11F315F68C7F3004CDF6ABCF1000FB8
:108EE000C7F380770DD0D3F82CC00CF00F0C0CF129
:108EF000010C07B14B4DB5FBFCF54D43D6E71021F6
:108F0000E6E7494D69435D68C5F303151DF8057033
:108F100021FA07F55F680DF1100CC7F302271CF862
:108F2000077025FA07F95F680DF1180CC7F3C2271F
:108F30004FF4004A1CF8077025FA07F7B8F1070F3D
:108F400006D2DFE808F004080A0C0E3E4600084688
:108F500008B0BDE8F0872846FAE74846F8E7384603
:108F6000F6E7186BC00506D4186BC00301D42F4A6E
:108F700025E02F4A23E05868C0F38131186BC00FF9
:108F800031B1012909D002290ED0032917D112E0ED
:108F900008B1032003E07A0811E018B10520B5FB01
:108FA000F0F20CE0BA080AE008B10720F7E7062063
:108FB000B7FBF0F203E008B10920F0E7FA08104629
:108FC000C6E7186B400602D448F21200C0E75046CC
:108FD000BEE7186B80070ED0186B00F00300012865
:108FE0000BD0186B00F00300022808D0186BC043A8
:108FF000800706D006E03C4604E00C4602E05446FA
:1090000000E034462046A3E7000000000000000016
:1090100001020304060708090010024000127A004A
:10902000001BB700006CDC0200093D00809FD500EA
:10903000003FAB01054901EB90110A6800F01F03E6
:109040000120984002430A6070470000001002406F
:10905000054901EB90110A6800F01F0301209840B8
:1090600082430A607047000000100240054901EB8E
:1090700090110A6800F01F030120984002430A6023
:10908000704700000010024009494A6822F440027B
:109090004A600A6B22F080420A634A6820F08043EB
:1090A0001A434A600A6B00F0804002430A6370472B
:1090B000001002400148407B704700004808002033
:1090C00070B5134C2079FFF70FFC6079FDF78EFF28
:1090D000A079FDF7AFFFFDF753FAFDF789FAFDF729
:1090E0001DFB0546FBF76EFCFBF7F2F8FBF726FAD3
:1090F000042D02D0FBF7DCF901E0FBF7C3F9A179FD
:109100006079FBF7D7FDBDE87040FBF701B80000C0
:109110004808002010B5FDF79DF92820FFF7E1FA77
:10912000034800F0C2FEBDE81040024800F0BDBE9A
:10913000002C0140004401400A78B0F5566F0BD373
:1091400040F6B863984201D90A3200E0921CD2B2CC
:109150001E2A0DD91E220BE040F6DF23984207D2CB
:1091600032B1B0F5A07F05D20A2A03D90A3AD2B2A9
:109170000A707047921EFAE770B50E4CA07A052867
:1091800017D1FFF79DFFA4F5CA70022585712079DC
:10919000801EE070000601D50020E07005480549FA
:1091A000B4380831B0F87400FFF7C6FFA57201208B
:1091B000207470BD480800202DE9F041394D002091
:1091C000A979FDF747F9687A400001F019F8687A43
:1091D000E873A97B081AC0B2FDF7BAF8FDF76EF87C
:1091E000314EA5F5B274317804EB81014861FDF789
:1091F0005FF83178012704EB410250806218E8786B
:1092000082F83000491CC9B21422317006293DD3BE
:10921000002003463070012104EB810604EB800C32
:109220007669DCF814C0664500D90846491CC9B205
:109230000629F1D304EB4006DFF870C07188FA29E3
:1092400002D98CF8057003E0B42901D28CF80530FE
:10925000052800D1EA70211804EB800291F8301043
:109260002971526922612070282902D300F036F852
:1092700012E00E4878216830FAF7D7FB0949708868
:109280000931FFF759FF0320A87205E0052906D030
:10929000282801D2401CE8702F74BDE8F081EA70E4
:1092A000FAE700004808002090010020B4060020E2
:1092B0000948807A05280ED2DFE800F00305070987
:1092C0000B00FFF7C5BAFFF771BAFFF775BF00F0E3
:1092D00059B800F0D3B870474808002010B51121E4
