:020000040800F2
:10000000081B00206501000823050008F50400080E
:10001000210500083B0200088108000800000000DC
:100020000000000000000000000000008D07000834
:100030007502000800000000450500088F07000851
:100040007F0100087F0100087F0100087F01000890
:100050007F0100087F0100087F0100087F01000880
:100060007F0100087F0100087F0100087F01000870
:100070007F010008350800087F0100087F010008A3
:100080007F0100087F010008000000007F010008D8
:100090007F0100087F0100087F0100087F01000840
:1000A0007F0100087F0100087F0100087F01000830
:1000B0007F010008000000007F0100080000000030
:1000C0007F010008000000007F0100080000000020
:1000D0000000000000000000000000000000000020
:1000E00000000000000000004508000800000000BB
:1000F0000000000000000000000000000000000000
:100100007F01000800000000000000000000000067
:1001100000000000000000000000000000000000DF
:1001200000000000000000000000000000000000CF
:1001300000000000000000000000000000000000BF
:100140000000000000000000000000003908000866
:10015000DFF80CD000F034F8004800472512000802
:10016000081B00200648804706480047FEE7FEE7D8
:10017000FEE7FEE7FEE7FEE7FEE7FEE7FEE7FEE757
:10018000950700085101000840EA01039B0703D0CE
:1001900009E008C9121F08C0042AFAD203E011F8C6
:1001A000013B00F8013B521EF9D27047034611F89B
:1001B000012B00F8012B002AF9D1184670470000E6
:1001C000064C074D06E0E06840F0010394E80700A4
:1001D00098471034AC42F6D3FFF7BEFF802A0008E0
:1001E000A02A000870B58C1810F8015B15F0070301
:1001F00001D110F8013B2A1106D110F8012B03E0C0
:1002000010F8016B01F8016B5B1EF9D12B0705D4C7
:100210000023521E0DD401F8013BFAE710F8013B10
:10022000CB1A921C03E013F8015B01F8015B521E2C
:10023000F9D5A142D8D3002070BDFEE730B5024603
:1002400000200B4B11E012F8015B040B84EA15143B
:1002500033F8144084EA001085EA103404F00F04E7
:1002600033F8144084EA001080B2491EEBD230BD4E
:100270005A290008704710B50D2001F07BF8432083
:1002800001F078F8BDE8104040F20B6001F03AB997
:100290002DE9F04F284E294C0F46804675784FF0D7
:1002A000000A04F104093EE07F1E20683FB2B0F569
:1002B0007A7F01D3C4F800A098F80000012804D088
:1002C000042806D0102823D121E00DBBC4F800A0DB
:1002D00027E0EDB92168012923D91848174B801C64
:1002E0005A46085CDB1C60F30702C85C891E60F399
:1002F0000F229346201DFFF7A1FF1FFA8BF18842C2
:100300000FD1206802280CD90120B07009E03DB15E
:10031000226802F809002068401C0025206000E0E7
:10032000012508F10108002F02DDB0780028BBD0BC
:100330007570BDE8F08F000011000020240A002035
:1003400001480078704700001100002010B5044CEF
:10035000A078002803D000F065F80020A07010BD40
:100360001100002070B5184C0546002021680029B6
:1003700029D0201DFFF762FF2268211D50542268FA
:10038000000A521C2260505420680021401C20604A
:100390000120287010260EE063181A79042A03D071
:1003A000012A01D0102A01D12E54401C1A79491C6F
:1003B0002A54C9B2401C22688A42EDD8042129542B
:1003C0000021401C216070BD100E002070B50E464B
:1003D000044600F0F7FD4FF47A7504EB86260FE033
:1003E000012000F09FFD0028FAD1204600F0ACFD6E
:1003F000284600F0C7FD08B1012070BD04F58064F7
:10040000A642EDD800F098FD002070BD10B5002385
:1004100000EB820203E010C841F823405B1C8242DB
:10042000F9D810BDF8B5244A002102F57B74107983
:1004300020710326012502F579772160062823D251
:10044000DFE800F022030C1C23301C481DA10088AB
:10045000A7F80D001A48266005700AE0022001F096
:100460008BF800F0F9FD01461B48FFF7AFFF1BA119
:100470002560BDE8F840002000F0B2B81168501DBA
:10048000C91E00F0FFF92560F8BD0B491C3951F871
:10049000210F4968FFF7D2FEADF80000A7F80D0064
:1004A0002660F8BD00F0F0FD10B1002001F064F806
:1004B0000F480570F8BD0000240A002058290008E4
:1004C000000000200D0A7265616420626F6F745F26
:1004D000696E666F2E2E2E00003800080D0A666CBD
:1004E0006173682065726173652E2E2E0000000016
:1004F00011000020FEE7000007490868074A104085
:10050000B0F1005F07D172B60348001D00680968AA
:1005100081F3088800477047003800080000FE2F6C
:10052000FEE770470907090E002806DA00F00F0001
:1005300000F1E02080F8141D704700F1E02080F801
:1005400000147047704700F03BBA00002DE9F041FD
:1005500007460B4815460E46007808B900F030FAF9
:10056000EFF31184202080F311882A463146384663
:1005700000F008F8E1B281F31188BDE8F0810000D5
:100580004C12002070B50E46144900EB400001EB00
:10059000C0051446E86A183520B101280FD002289A
:1005A00005D113E0284600F03FFAA04201D2002412
:1005B00011E022463146284600F05CFB0BE028465D
:1005C00000F032FAA042F4D20446F2E7314628465F
:1005D00000F023FB0446204670BD00004C120020B2
:1005E0000FB408B504A900916A46039900F003F816
:1005F00001B05DF814FB2DE9F04198B0064607A85C
:10060000029040200025CDE90305CDE9055690462E
:100610000C4614F8011B002973D0252908D002A824
:1006200000F0DCFA05980028F3DA18B0BDE8F08194
:10063000002001212278232A1ED02B2A19D02D2A0E
:1006400002D0302A08D102E040F0010001E040F081
:100650000200641C0029EDD100222178A1F13003B1
:100660000A2B0CD202EB820201EB4202303A641CEC
:10067000F3E740F00400ECE740F00800E9E700236E
:10068000CFB22E2F0BD114F8011FA1F130070A2F82
:1006900005D203EB830301EB4303303BF3E76C2903
:1006A0000DD068290BD0702954D00BDC252916D029
:1006B000582931D063290CD0642913D114E014F8DF
:1006C000011FECE7732934D075291BD0782909D193
:1006D00022E0D8F80000011DC8F80010017802A837
:1006E00000F07CFA641C9DE7D8F800100F1DC8F8D4
:1006F00000700968CDE900200A2202A800F0A0F9E4
:10070000F0E733E0D8F800100F1DC8F80070096852
:10071000CDE900200A2208E0D8F800100F1DC8F823
:1007200000700968CDE90020102202A800F0ECF961
:10073000D8E7D8F80000011DC8F80010076817F8BE
:10074000011B0029CED002A800F048FA0598002825
:10075000F5DAC7E7D8F80000011DC8F800100168F5
:100760000820CDE9000503461022DEE705980028A1
:100770007FF75BAF049820B1024607A93046FFF728
:10078000E5FEDDE90410084405904EE7704700F0EF
:1007900073BB00002048016841F4700101601F48EC
:1007A000016841F00101016001688907FCD54168D9
:1007B0001B4A1140416041681A4A1140416041683A
:1007C00021F440014160016B174A11400163016847
:1007D000164A11400160C16A154A1140C162016B9D
:1007E00040F2031291430163016B21F480310163F4
:1007F000016B21F000410163416B21F00101416374
:10080000D0F8C01021F48031C0F8C0100021816000
:10081000C0F8CC1000F0E2BE88ED00E0001002400D
:100820000C00FF08FFFFC277BFFFFFBFFFFFF2FE14
:10083000F0FFFF3F00F02CBF014801F0C7BE0000F1
:100840008C0000200C4810B5807978B1FFF7A2FF2A
:10085000002000F03DFE0948006800F06FFE40F205
:100860000C5000F05DFE044800F0F8FFBDE81040B9
:100870004FF4802000F04ABB8C000020880000204C
:10088000FEE700002DE9F84F00250E460446AA4673
:10089000DFF8209188E02C44211D227889F800207F
:1008A000E378551D89F80830761B4FF0000C4F4651
:1008B0006046521DC9F80C1006E000BF14F8008015
:1008C000401CC4440CF0FF0C8242F7D8BCF1000F6E
:1008D0006AD13BB1022B51D0042B5BD05046C7F8F4
:1008E00014A054E087F807A087F806A06078787114
:1008F000A0783871B96978680844796908447860E3
:1009000000F060FBB8462FE02B48D8F8047087420F
:1009100019D32A480068874215D8042A08D24FF014
:10092000FF3100916846D8F80C10FFF72DFC03E06A
:10093000D8F80C00006800903846009900F06CFB75
:10094000342000F0E9FAD8F80410091DC8F80410A2
:10095000D8F80C10091DC8F80C1098F800100329DD
:1009600009D9091F88F8001098F80020002ACBD177
:1009700000F0E2FA18E088F800A0F9E787F817A07D
:100980000A78BA7549787975504687F814A0C9F87D
:10099000180009E00878F8764878B87687F819A042
:1009A00087F818A0C9F814A0052EBFF474AFBDE8ED
:1009B000F88F0000080A0020003800080800002016
:1009C00010B5124C03202061606111A0A06104F1F8
:1009D000A800E0614FF4806020620020A0626062A5
:1009E0000BA12166E06204F5956161661021206724
:1009F000C4E91A10606709A1E01DFFF7D7FB08A141
:100A00002046FFF7D3FB2020A07110BD4C12002020
:100A10005465726D696E616C0000000052545400A0
:100A200053454747455200000269C1688A4203D8CE
:100A30008068401A104400E0501A401E70470000C1
:100A40002DE9FC5F0E008146DDE90C47C6F1000090
:100A500098469346824600D40846012503E000BF2D
:100A600090FBFBF06D1C5845FADAA84500D94546C5
:100A700024B1002E01DB780700D5641EB80702D52B
:100A8000B8F1000F0FD0F8070DD164B1A5420AD21A
:100A900020214846641E00F0A1F8D9F80C00002877
:100AA000F3DABDE8FC9FD9F80C000028F9DB002E32
:100AB00002DA56462D2102E0780707D52B21484659
:100AC00000F08CF8D9F80C000028EADB07F00300EE
:100AD00002280FD1B8F1000F0CD15CB1A54209D2A8
:100AE00030214846641E00F079F8D9F80C0000283F
:100AF000F3DAD6E7CDE9004743465A463146484641
:100B000000F002F8CDE700002DE9F84F8246DDE95C
:100B10000A4B0126984691460D460846374602E0A4
:100B2000B0FBF9F07F1C4845FAD2B84500D94746DA
:100B30005FEACB7017D1B4B15FEA8B7002D5B8F120
:100B4000000F02D0202000900BE03020FBE7504641
:100B5000641E009900F042F8DAF80C00002838DB37
:100B60000CB1A742F3D3DAF80C00002831DB00BF48
:100B7000B8F1010F02D9A8F1010803E0B5FBF6F0C6
:100B8000484502D306FB09F6F2E7DFF84C8000BFC8
:100B9000B5FBF6F000FB165518F80010504600F0B3
:100BA0001DF8DAF80C00002803DBB6FBF9F6002E7E
:100BB000EED15FEACB700CD0002C0AD0A74208D24D
:100BC00020215046641E00F009F8DAF80C000028D5
:100BD000F2DABDE8F88F00001B2A000810B50446C1
:100BE000D4E90130421C934205D323681954A26012
:100BF000E068401CE060D4E90102824209D121682A
:100C00002069FFF7A3FCA168884203D04FF0FF30B2
:100C1000E06010BD0020A06010BD2DE9F047C46861
:100C20001746894606464FF000083069A04201D9B0
:100C3000051B02E0B168201A0D1AB0686D1E001B7A
:100C4000A84200D80546BD4200D33D4670682A46FA
:100C500020444946FFF798FAB0687F1B2C44A8440B
:100C6000A944A04200D10024F460002FDDD1404609
:100C7000BDE8F0872DE9F04104468846D4E9020733
:100C8000C51BE168606816460844B54206D941466E
:100C9000FFF77AFAB819E060BDE8F0812A464146CC
:100CA000FFF772FA761B08EB050132466068FFF722
:100CB0006BFAE660F0E702E008C8121F08C1002ADC
:100CC000FAD170477047002001E001C1121F002ACD
:100CD000FBD170470548006805490840B0F1005F46
:100CE00001D0012070470020704700000038000844
:100CF0000000FE2F10B5012901D051B10BE0022AEE
:100D000001D0012A07D142F08001002000F05AFCF6
:100D100006E0022A01D0022010BD002000F04CFCA9
:100D2000002010BD10B50446822101F041F80221D7
:100D3000204601F03DF88121204601F039F80020DD
:100D400010BD000010B504460A4901F055F80949E4
:100D50002046193101F050F806492046203101F0B3
:100D60004BF84023044A0221204601F08DF8002070
:100D700010BD0000A7290008FC11002070B50C78F8
:100D8000002214F06005354C134628D0202D62D186
:100D90004A780C2A1FD2DFE802F01E5E060A1E1EE9
:100DA0001E1E1E0E171B2D4901220C314AE02B4935
:100DB0000122083146E0012262708A7822708A7925
:100DC000274900F033FF46E04888000AE06042E02F
:100DD0008878A0603FE000F0A7FF022070BD4D784A
:100DE000062D04D00A2D30D00B2D34D131E04C88A3
:100DF000240A212C13D0222C23D18C8814B1012C4D
:100E00001FD105E0CA88282A00D92822154B18E0EE
:100E1000CA881D2A00D91D22124B1D3B11E08C8867
:100E200014B1012C0DD106E0CA88092A00D9092283
:100E30000C4B4D3B05E0CA88092A00D90922094B11
:100E4000343B194600F01CFF05E004490122091D4E
:100E5000F8E788786060002070BD00005C0000202A
:100E6000FC110020EB2900080249086008680028EE
:100E7000FCD17047AC0100200448016811B1016841
:100E8000491E01600249012008807047AC01002022
:100E900082000020F0B5184D2B6883432B602E1D77
:100EA000336883433360331D1C6884431C601C1DFE
:100EB00027688743276011B1012907D103E029681A
:100EC0000143296002E031680143316052B1012AD7
:100ED0000ED0022A05D11968014319602168014327
:100EE0002160F0BD19680143196021688143F7E76B
:100EF00019688143F1E700000004014002490A68D3
:100F000002430A6070470000000401400149086084
:100F100070470000140401400149C8607047000098
:100F200000200240034A01460020D2680A4200D055
:100F300001207047002002400248016941F0800111
:100F4000016170470020024070B505464FF47026DD
:100F5000304600F017F8002810D1094C206940F005
:100F6000020020616561206940F040002061304648
:100F700000F008F8216921F00201216170BD000034
:100F80000020024000B5034600F008F85B1E01286F
:100F900002D1002BF8D1042000BD00000849002038
:100FA000CA68D20701D001207047CA68D20601D5AD
:100FB00003207047C9684907FBD50220704700002D
:100FC0000020024004480169090603D50349416035
:100FD000034941607047000000200240230167453B
:100FE000AB89EFCDF0B506464FF470270D46384675
:100FF000FFF7C8FF00280CD1064C206940F0010023
:10100000206135603846FFF7BDFF216921F00101FD
:101010002161F0BD00200240F0B506464FF4702774
:101020000D463846FFF7AEFF0A4CD4F8FC1041F0ED
:101030000201C4F8FC1000280BD1206940F0010027
:10104000206135603846FFF79DFF216921F00101DD
:101050002161F0BD002002400848017808480E29AF
:10106000417006D90E39C9B2064A417002EB81219E
:1010700001E000214170816040787047E0F7FF1F78
:10108000000000200038000808B501226946034826
:10109000FFF7BCF90098C0B208BD0000003400089A
:1010A00010B586B00446022269460C48FFF7AEF937
:1010B0000A202070032060700098401C04D0009823
:1010C000A0700098000AE0700198401C04D00198BC
:1010D00020710198000A607106B010BD0030000850
:1010E0000549822803D0832803D0087870474878C0
:1010F0007047C878704700000C0000200148407B12
:10110000704700008C0000200AB181617047816245
:101110007047000070B540F21254204600F000FA0B
:101120000F4D4FF44066334600220121284600F05F
:101130001EF8334603220021284600F03BF80849F8
:101140004FF4006028310860204600F0E9F9284695
:10115000BDE8704010230122002100F008B8000013
:10116000000400480069084000D0012070472DE9C4
:10117000F047894601689246C268002401274FF073
:10118000030C07FA04F51D420BD066000CFA06F5B5
:10119000A943AA4309FA06F80AFA06F548EA010142
:1011A0002A43641CA4B2102CEBD30160C260BDE8DA
:1011B000F0870000F0B50129416831D099434160C2
:1011C000816801270325A2F57F44FF3C13D000244A
:1011D00007FA04F61E4208D0660005FA06FC21EA6A
:1011E0000C0102FA06FC4CEA0101641CA4B2102CAA
:1011F000EED38160F0BDC66B5FF0000407FA04F225
:101200001A4206D04FEA440C05FA0CFC4CEA0101E4
:101210001643641CA4B2102CF0D38160C663F0BDE9
:101220001943CCE72DE9F04100214FF0006000F0B8
:10123000FBF800F0FFFA00F00BFAFFF784F9FFF774
:1012400069FF00F091F93648FFF72AFF0121354880
:1012500000F0DCFF00F02CFCFFF716FF324E0446D6
:1012600010213046FFF77EFF98B1012C05D0022CEB
:1012700003D0FFF72FFD00284AD040F61C1000F0E5
:1012800031F930B9FFF726FD18B9FFF7FDFE012847
:101290000DD026A10020FFF7A3F92B480025214CF3
:1012A00005700C3C4FF480674FF4006828E0002084
:1012B00000F062F9BFF34F8F24480168244A01F41B
:1012C000E06111430160BFF34F8FFEE700F038FA91
:1012D000FFF73CF8608898B16580A088401C80B218
:1012E000A08064280CD0C8280AD100223946304694
:1012F000FFF70AFF002241463046FFF705FFA580B1
:10130000FFF71EF80028E1D012A10020FFF768F9CE
:10131000FEF7B1FFFFF7F0F80020BDE8F081000014
:101320000C0200208C000020000400480D0A6669B1
:10133000726D776172652075706461746520737475
:101340006172742E2E2E0000110000200CED00E0C2
:101350000400FA050D0A6669726D77617265207581
:10136000706461746520636F6D706C6574652E2E9A
:101370002E00000000F01F02012191404009800072
:1013800000F1E020C0F880117047000070B50546FC
:101390001F4800240E460068234600F4E0614FF425
:1013A000A06081420FD006DCB1F5407F16D0B1F5C8
:1013B000806F06D10FE0B1F5C06F09D0B1F5E06FD5
:1013C00004D000F027F80224234608E0042306E0B6
:1013D0000124032303E00324012300E00424C4F1D7
:1013E00004008640C3F104010F20C8401040304380
:1013F00005F1E021000181F8000405F01F01012042
:1014000088406909890001F1E021C1F8000170BD3F
:101410000CED00E0024908430249086070470000F3
:101420000000FA050CED00E0024A114001430248B9
:101430000160704780FFFF1F08ED00E030B51F4AD4
:10144000136823F0030313601368034313601C4AFB
:10145000106840F0040010604FF0E0200469194B60
:101460001C60D0F800415C60D0F804419C60D0F86A
:101470000841DC600469144D2C400461134CC0F831
:1014800080416FF48064C0F884414417C0F88841FB
:1014900091B140BF20BF20BF196801615968C0F8F1
:1014A00000119968C0F80411D968C0F808111068D3
:1014B00020F00400106030BD30BFEDE70070004048
:1014C00010ED00E03C1200200400010019EFFFB70E
:1014D000034A52F8C01F21F0010101431160704717
:1014E00000100240064A02EB9011096800F01F024A
:1014F00001209040014201D0012070470020704738
:1015000000100240054901EB90110A6800F01F032A
:101510000120984082430A6070470000001002409A
:10152000054901EB90110A6800F01F030120984063
:1015300002430A60704700000010024009494A68EF
:1015400022F440024A600A6B22F080420A634A6831
:1015500020F080431A434A600A6B00F08040024347
:101560000A637047001002400248002101600171C7
:10157000704700000C00002070B50E4D04464FF47B
:10158000807632460A492846FEF740FF0848012186
:1015900004602846FEF71AFF022C06D03246284681
:1015A000BDE87040024900F09CB80122F7E7000056
:1015B0002002002000340008014908717047000033
:1015C0000C000020044A822903D0832900D1D07066
:1015D00070475070704700000C0000201A4800212E
:1015E000026842F480320260C3140268491C12F49B
:1015F000003F01D19942F8D10168890323D54168A0
:101600004160416841F400514160416841F48061AA
:10161000416041680D4A11404160416841F48811C0
:101620004160016841F08071016001688901FCD569
:10163000416821F003014160416841F002014160CD
:1016400041680907FCD5704700100240FFFFC277D0
:1016500070B50E484FF47A710068B0FBF1F0401E8F
:10166000B0F1807F11D24FF0E024606165170F2147
:101670002846FEF757FF0020A0610720206128467A
:10168000BDE870400021FEF74DBFFEE7B401002029
:1016900010B50B4C0121204600F01EF8002809D09F
:1016A0000121204600F015F80649086818B10868BD
:1016B000401E086010BD2046BDE8104000F004B890
:1016C000002C0140B0010020016821F001010160FF
:1016D0007047C943016170470069084000D001208C
:1016E00070472DE9F04115460E4607460024FFF7E6
:1016F00069FC00200CE00120FFF714FC0028FAD15F
:1017000056F8241007EB8400FFF76CFC3420641CAF
:10171000FFF702FCAC42EED3BDE8F041FFF70CBC92
:1017200010B513460A4604460146044800F00EFC74
:101730002146BDE810400120FFF744BF8C00002087
:101740002DE9F041FFF7DAFC0027334C032801D1E3
:10175000207838BB608848F6B801401C80B26080B1
:1017600088420BD92D490020FEF73AFFFFF7B2FA65
:1017700018B9FFF789FC012805D06780FFF7BEFC88
:10178000032835D10EE00020FFF7F6FEBFF34F8FA0
:1017900023480168234A01F4E06111430160BFF36B
:1017A0004F8FFEE72048FEF7DDFD05461E4E4FF445
:1017B0007A7817E00120FFF757FBA088411CA18031
:1017C000404501D9A78004E08220FFF789FC00286A
:1017D000F0D1402231468220FFF7A2FF402D03D9ED
:1017E000403D4036002DEFD10B4D0C35287920B10E
:1017F000BDE8F0410120FFF737BB678040210B486F
:10180000FEF746FD4023094A0221094800F03CFB4F
:1018100001202871BDE8F081000000202C2A00087A
:101820000CED00E00400FA0520060020FC11002069
:101830008C00002010B5084C0020A060052020700E
:101840000020FFF745FEA068FFF778FEBDE81040D6
:1018500040F20C50FFF764BE8000002008B580798C
:1018600000280BD006480068C00707D0054801686B
:1018700021F0020121F001010091016008BD00008A
:1018800008080050000E005070B54FF0A044054607
:101890002169002041F0010121611249401C884268
:1018A00002D82269D207F9D1D5F8181109B103205D
:1018B0008847A06B40F45020A063A06820F080000F
:1018C000A060A06B40F40010A063687918B1A06B11
:1018D00040F48010A063D5F81C1109B1142088478A
:1018E000002070BD400D030001224023427003819F
:1018F00001290AD102700821C170042101714FF43D
:10190000A071418102218170427100207047000066
:10191000FEB54FF0A0450646A86A0024CDE9004078
:10192000484804604848016821F4C05101600168DA
:1019300001603178012937D1016821F0030101608C
:10194000016841F003010160686A6FF30F0068628B
:10195000686A40F080006862019880B240F48000BC
:101960006FF30F0040F080000190A8628021374A99
:10197000012000BF02EB400333F8023C1944009BF6
:101980009BB2009332F81030009F47EA03436FF395
:101990000F030B431F460093830003F1A043C3F8DA
:1019A0000071401C0428E5D31021304600F0D2F825
:1019B000304600F0B9F8244810300460001D04607F
:1019C000001D4FF0FF320260001D0460002026E081
:1019D000410101F1A041D1F80039002B06DAD1F81C
:1019E000003943F09043C1F8003901E0C1F80049E3
:1019F000D1F8003B002B06DAD1F8003B43F09043CE
:101A0000C1F8003B01E0C1F8004BC1F81049C1F832
:101A1000104BFF23C1F80839C1F8083B401C31794D
:101A20008142D5D8AC616FF0804068616A60084837
:101A3000A8610848A9698143A961A9690143A9610D
:101A40000020FEBD000E005000080050B80100202C
:101A50000008008018383C0008B503490148009090
:101A6000086008BD18000860100B005010B5002277
:101A7000C91C8908044B03E01C6840F8044B521C45
:101A80008A42F9D310BD00000010005010B5074C79
:101A90000023D21C04EB0131920803E050F8044B00
:101AA0000C605B1C9342F9D3002010BD0010005065
:101AB00010B5002203214320FFF768FC40F21C70A0
:101AC000FFF72EFD4FF480242046FFF71FFA002277
:101AD00011462046FFF7DEF92046FFF70FFA0022F5
:101AE000BDE8104011462A20FFF750BC10B54FF05A
:101AF000A042012901D041B10FE0D16821F080411D
:101B0000D160D16841F0005106E0D16821F0005168
:101B1000D160D16841F08041D160D0F81C1109B189
:101B200032208847002010BD10B500214FF0A042A0
:101B300010231361064B491C994202D81469E4062C
:101B4000F9D4D0F8181109B103208847002010BD3E
:101B5000400D030010B54FF0A0420023146924F497
:101B6000F8641461202444EA8111116106495B1C68
:101B70008B4202D81469A406F9D4D0F8181109B11F
:101B800003208847002010BD400D030070B50446B7
:101B900008780D4610F0030004D001280FD0022869
:101BA00015D119E0607B022801D003280FD1688885
:101BB000012833D100206061D4F8102127E0607B38
:101BC000022804D0032829D12879022826D92046C2
:101BD000BDE8704000F0A8B82979607B022804D0E5
:101BE00003281BD1688848B113E0002916D080294A
:101BF00014D02046BDE8704000F088B949B1802972
:101C000007D0204600F09EF8D4F81021294620463F
:101C100090472046BDE8704000F023B870BDD0F872
:101C2000001189781180D0F80001704700B5C261B9
:101C300003238261837313460A46002100F024F9CE
:101C4000002000BD10B5044605200023A0731A46ED
:101C50001946204600F018F92046FFF7FDFE002047
:101C600010BD10B5044604200023A0731A4619467F
:101C7000204600F06BF92046FFF7EEFE002010BD75
:101C800010B5C261022382618373134600240A46A1
:101C9000214600F05BF9204610BD50F8FC1F097882
:101CA00011800068704700002DE9F041884601EB83
:101CB000480100EBC104D4E91201401A216C3C3404
:101CC000814200D20846C01C4FEA4816870806F138
:101CD000A0461BE00D1A6068A84200D20546E81C29
:101CE0008708AAB24146A068FFF7D0FEA068284442
:101CF000A060206928442061E168814206D1094939
:101D0000012000FA08F00A6882430A60D6F8180930
:101D100080B2B84203D9D4E903108842DAD3012053
:101D2000BDE8F0813408005010B50446802100F071
:101D3000EDF80021204600F0E9F82046BDE810400B
:101D4000FFF78ABE08B500220092CB0901F07F029E
:101D500002EB420100EBC1014FEA421000F1A0404A
:101D600012D0D0F8002922F40012009291F83C1011
:101D7000032903D0022901D0114602E042F080512C
:101D80000091C0F8001908BDD0F8002B22F4001211
:101D9000009291F89C10032903D0022901D011462A
:101DA00002E042F080510091C0F8001B08BD000025
:101DB00010B50023CC094FF0010201F07F0002FAB8
:101DC00000F24FEA401000F1A04006D0D0F8001910
:101DD00021F40041C0F8001907E0D0F8001B43EAE5
:101DE000024221F40041C0F8001B024801689143FF
:101DF000016010BD1C080050F0B58A78CC78002333
:101E000004F00305D40902F07F0C02F07F060CEB0E
:101E10004C028F8800EBC2024FF001014FEA4C10D8
:101E200001FA0CF100F1A04004D0D0F800390124EF
:101E30003C3205E043EA0141D0F8003B00249C32EB
:101E40005FEA034C0FD46FF30A033B4323F44023B0
:101E500043EA85431CB123F0707343EA865343F091
:101E6000805343F4004314B1C0F8003902E00CB9C8
:101E7000C0F8003B03485760157002680A430260CF
:101E8000F0BD00001C08005030B501F07F0101EBEF
:101E9000410400EBC400C0E9292300224C0104F1F5
:101EA000A044C0F8AC20D4F8003BD4F8102B164D59
:101EB0006FF312022A40D0F8A8509C3095B189B136
:101EC00041680D446D1EB5FBF1F542EAC542C2F30F
:101ED000C945694351EA0201C4F8101B0178012980
:101EE00005D00BE04168114341F40021F4E740784C
:101EF00010B143F0005301E043F0805343F004403D
:101F0000C4F8000B30BD0000FFFF07E008B500205B
:101F100000904FEA41604FEA1050CA0900F1A0401A
:101F20000DD0D0F800190091002902DA41F080416B
:101F3000009141F400110091C0F8001908BDD0F8DB
:101F4000001B41F40011C0F8001B08BD3CB401F0B7
:101F50007F0101EB410500EBC500443000241CC0AB
:101F60004A0102F1A042D2F800390193D2F81039A7
:101F70002A4C6FF312032340009350F8083C1438A6
:101F80004BB1446859B123445B1EB3FBF4F3009C8E
:101F900044EAC34309E0009B43F4002310E0A3425A
:101FA00000D9C460009B43F400230093C368009CE5
:101FB000234300930378012B009B02D143F000538D
:101FC0000093C2F810390378012B01D0019B0AE07D
:101FD000134B1B68DB05019B02D443F0005301E067
:101FE00043F08053019343F004430193C2F8003956
:101FF0000278012A0BD0C068002806D008482C308F
:10200000026801238B401A4302603CBC70478289FE
:10201000806802B092B230BCFFF738BDFFFF07E026
:1020200008080050CA88012A04D1427B022A03D042
:10203000032A04D0FFF778BE0122034902E00122FF
:1020400000F10C01FFF71CBEC8010020F8B50546E1
:1020500008780C4681070BD000F00300012841D11D
:10206000D5F8102101B021462846BDE8F0401047C0
:102070006088060AC1B2032E35D805291FD81C482E
:102080006A4600EB860050F8043C28469847BDF8A5
:1020900000100346002925D0E088002822D088427D
:1020A00000D80146ADF80010012E04D1402802D11D
:1020B0000820ADF80000BDF8002019460FE0C9293E
:1020C00010D10C480A22032102704170ADF80020A3
:1020D000E0880A2800D802460649ADF800202846C4
:1020E000FFF7CEFDF8BD21462846FFF71DFEF8BDDF
:1020F000000200200C020020D0F810211047000040
:1021000030B40A788B8812F003051B4ADCB206D083
:10211000012D11D0022D19D030BCFFF705BE417B37
:10212000022902D0417B032923D101211170416989
:1021300001B10321117004E0417B032919D1022C64
:1021400017D830BC02220C49FFF79ABD417B032906
:102150000FD119064FEA43614FEA115101F1A04135
:1021600002D5D1F8001901E0D1F8001BC1F34051AC
:10217000E0E730BC70470000C501002010B5044600
:1021800019B1607B032838D03DE0A17B04F13C000D
:10219000022938D1A26941688A4207D9531AA3613A
:1021A000826800212046FFF7D1FE12E0E069B0FB13
:1021B000F1F201FB12029AB9884211D3216A8842D6
:1021C0000ED200231A4619462046FFF7BFFE002014
:1021D000206200231A4619462046FFF755FE12E0FA
:1021E000607B032805D10022D4F814310121204658
:1021F00098472046FFF726FD05E00A46D4F814313B
:10220000012120469847002010BD000070B505460A
:10221000FFF76AFB012068734FF0A044A06820F02C
:102220000100A0602846FFF72FFB00212846FFF79A
:102230005DFC0D4E306840F002003060D5F81C1196
:1022400009B1032088472846FFF762FB306820F079
:1022500002003060D5F81C1109B103208847A0683E
:1022600040F00100A06070BD040800501C4910B58A
:102270000968C1F341021A49F8310B68194CA45C92
:1022800023430B601649091F0B6823F480730B600E
:102290000B6843F480730B6013498A5C4FF0A041D4
:1022A000032A10D00122427040220281C86820F423
:1022B0007050C860C86840F4A050C8604FF4005027
:1022C0004861012010BD002242704FF4007202816B
:1022D000C86820F47050C860C86840F41050ECE73B
:1022E00008080050172A0008C00100202DE9F84313
:1022F000804628480024009400682649091F096880
:10230000244F084000F03F0618373DE0F00738D072
:10231000650105F1A045D5F8081938681D4AE04067
:10232000C0070C3A126842EA106008400090C007EB
:102330000BD03A68012101FA04F082433A60C5F8F3
:10234000081921464046FFF719FF0098000702D5FB
:102350000820C5F808090098400602D54020C5F8B5
:1023600008090098800702D50220C5F808090098DE
:10237000000606D521464046FFF796FC8020C5F8AA
:102380000809641CE4B27608002EBFD10120BDE824
:10239000F88300001C080050F8B507461E480024CA
:1023A000009400681C49091F0968084000F47C106B
:1023B000060C2CE0F00727D0650105F1A045D5F803
:1023C000080B15490839096801400091C80706D073
:1023D0000120C5F8080B2146384600F08FF9009817
:1023E000800702D50220C5F8080B0098000705D524
:1023F000384600F05BFA0820C5F8080B0098400644
:1024000002D54020C5F8080B641CE4B27608002E03
:10241000D0D10120F8BD00001C08005070B5044662
:102420003E480025016821F001010160294620464F
:10243000FFF790FBFF2108E0680100F1A040C0F821
:102440000819C0F8081B6D1CEDB22079A842F3D81A
:1024500032494FF0FF3014310860081D016821F443
:102460007C110160016821F00F0101604FF0011142
:1024700001602A490B2010310860091F08602748B5
:10248000001F016821F4FE610160016801602046BF
:10249000FFF7E2FA4FF0A0414FF4805048611F4827
:1024A00004F13C01FC30026822F003020260026881
:1024B00022F440220260026822F070720260026818
:1024C000120409D4026842F040020260026802600D
:1024D000026842F4004202604022114800234A6030
:1024E0000B70056804F19C0125F003050560056883
:1024F00025F44025056005682D0409D4056845F0DC
:102500004005056005680560056845F400450560FF
:102510004A600B700120607370BD00000408005019
:10252000000B0050F8B54FF0A046316A0091B16938
:1025300021F01001B161009A0099C2F30A1501F06F
:102540000F01C2F3C1334A0102F1A042D2F8102BAD
:102550001C4C2240012909D142B91B4AD2F8004B38
:1025600024F0404444F00064C2F8004B01EB410207
:1025700000EBC204009A9C34C2F34342072A1BD2E8
:10258000DFE802F01A1A041A1A1A0F00A5B1294638
:10259000A068FFF76BFAA0682844A060206928446F
:1025A00009E049B9082D07D133B908212430FFF7D4
:1025B0005DFA206908302061B06940F01000B06118
:1025C0000120F8BD0000F81F20000050FEB54FF0BC
:1025D000A046074675690024B0697169C9077DD1B5
:1025E00005407CD0280303D53846FFF7D5FE0446C6
:1025F000680303D53846FFF779FE0443A80701D5E1
:1026000002207061680508D5B06920F48060B0616F
:102610004FF48060706144F00104280529D5B87931
:102620008DF800003248006800F001008DF80400C9
:10263000787B03285AD000208DF80800787BF87347
:10264000042078739DF8000070B19DF8040058B123
:102650009DF8080040B12748016841F0030101607E
:1026600000210120FEF7EAFE4FF40060706144F0A3
:102670000104002D07DAF87B787303207873C00714
:10268000706144F00104280709D51B4938460968E0
:1026900009B1096888470820706144F00104E80620
:1026A00003D53846FFF73EFF0443E80403D5384618
:1026B000FFF7B4FE0443A80403D53846FFF7D6FD60
:1026C0000443E80204D54FF48010706144F0010423
:1026D000A80207D54FF40010706101E002E003E0AA
:1026E00044F001042046FEBD0020FEBD0120A3E70A
:1026F00008080050000E00506C00002010B5044681
:1027000019B1607B032822D027E0A07B04F19C0153
:10271000032822D1A0694A6890420BD9801AA0618F
:10272000904200D3104683B28A6800212046FFF70A
:10273000ABFB12E0607B032805D10022D4F81431F2
:102740001146204698472046FFF78BFA05E00A46D7
:10275000D4F81431002120469847002010BD70475E
:1027600070B504468888A8B9C88898B9887800F0F8
:102770007F05607B03280DD00948016841EA0511F7
:1027800001602046FFF76DFA0DB1022000E0012044
:10279000607370BD2046BDE87040FFF7C5BA000009
:1027A0000008005070B50A46174D89780446297014
:1027B000012904D8607B022807D003280AD02046CC
:1027C000BDE870401146FFF7AFBA91B12173032005
:1027D00060730AE091B1207B88420AD00146D4F8A8
:1027E0000C212046904729782173D4F808212046EF
:1027F00090472046BDE87040FFF733BA022060736F
:102800002173D4F80C21F2E7C401002070470000C6
:1028100038B50446087810F0600004D0012823D0B1
:10282000022829D12DE0607B022801D0032836D16F
:10283000488801280DD002280ED000282FD1888882
:1028400000282CD080282AD0C1B22046FFF75EFB9A
:1028500020E00120606119E0087910F0FF0F1ED11F
:102860000F480068009015E0607B022804D0032820
:1028700015D10879022812D92046BDE83840FFF763
:1028800053BA607B02280AD0032808D1D4F810215B
:10289000204690472046BDE83840FFF7E2B938BDF2
:1028A00004080050D0F81021104700001CB500F1BA
:1028B000240211788DF8001053788DF80130937848
:1028C000D47803EB0423ADF802301379547903EB89
:1028D0000423ADF804309379D27903EB022292B24B
:1028E000ADF80620026211F0600209D0202A0FD054
:1028F000402A03D001F08001FFF708FB00201CBD37
:102900009DF801200F4B694653F822209047F5E7C8
:102910000446407B6946032810D1BDF80400C0B2CC
:1029200002280BD8D4F8102120469047BDF8061095
:102930000143E3D12046FFF794F9DFE72046FFF794
:10294000F3F9DBE7CC010020D0F8040150F82100B6
:10295000017811807047704701000000211042206B
:1029600063308440A550C660E770088129914AA170
:102970006BB18CC1ADD1CEE1EFF1120100020000CC
:102980000040BD28F1FF00000102000109024200E1
:102990000201008032090400000103010600092140
:1029A0000001000122280007058103080004090432
:1029B00001000203000000092100010001221D00A6
:1029C00007058203400002070502034000020600DB
:1029D000FF0901A10119012940150026FF00750812
:1029E00095408100190129409100C005010906A107
:1029F000018506050719E029E715002501750195F0
:102A00000881020507190029FF26FF0075089506B1
:102A10008100C00403090400000300303132333464
:102A20003536373839414243444546000D0A54682B
:102A30006520747970652D4320706F727420776102
:102A4000732070756C6C6564206F75742C706C6588
:102A500061736520696E73657274206974206167A3
:102A600061696E20616E64207072657373202775D2
:102A700070646174652720627574746F6E00000065
:102A8000A02A0008000000200C020000E401000859
:102A9000442B00080C020020FC180000C60C0008A3
:102AA0000114141203551247125412411242124CCF
:102AB0001A450A21AB220310125F12441246125526
:102AC00012321A3002123712313238140E03303AF1
:102AD00078122902011613132A2308141B20280434
:102AE0001A4C0401FF91137A291B088C04227014DC
:102AF00020450D1B0825041A7D0413F50C0211084E
:102B000015A24A044012401A200285030201021352
:102B1000012114088D1B14085F274C081128081A7E
:102B20006104134D201B080D101A25081AA5102A40
:102B3000F90819101A5770139B1C1B081F041A4917
:042B40000C00000085
:04000005080001519D
:00000001FF
